{
  "contractName": "FaceCoin",
  "abi": [
    {
      "inputs": [],
      "stateMutability": "nonpayable",
      "type": "constructor"
    },
    {
      "anonymous": false,
      "inputs": [
        {
          "indexed": true,
          "internalType": "address",
          "name": "owner",
          "type": "address"
        },
        {
          "indexed": true,
          "internalType": "address",
          "name": "approved",
          "type": "address"
        },
        {
          "indexed": true,
          "internalType": "uint256",
          "name": "tokenId",
          "type": "uint256"
        }
      ],
      "name": "Approval",
      "type": "event"
    },
    {
      "anonymous": false,
      "inputs": [
        {
          "indexed": true,
          "internalType": "address",
          "name": "owner",
          "type": "address"
        },
        {
          "indexed": true,
          "internalType": "address",
          "name": "operator",
          "type": "address"
        },
        {
          "indexed": false,
          "internalType": "bool",
          "name": "approved",
          "type": "bool"
        }
      ],
      "name": "ApprovalForAll",
      "type": "event"
    },
    {
      "anonymous": false,
      "inputs": [
        {
          "indexed": true,
          "internalType": "address",
          "name": "previousOwner",
          "type": "address"
        },
        {
          "indexed": true,
          "internalType": "address",
          "name": "newOwner",
          "type": "address"
        }
      ],
      "name": "OwnershipTransferred",
      "type": "event"
    },
    {
      "anonymous": false,
      "inputs": [
        {
          "indexed": false,
          "internalType": "address",
          "name": "account",
          "type": "address"
        }
      ],
      "name": "Paused",
      "type": "event"
    },
    {
      "anonymous": false,
      "inputs": [
        {
          "indexed": true,
          "internalType": "address",
          "name": "from",
          "type": "address"
        },
        {
          "indexed": true,
          "internalType": "address",
          "name": "to",
          "type": "address"
        },
        {
          "indexed": true,
          "internalType": "uint256",
          "name": "tokenId",
          "type": "uint256"
        }
      ],
      "name": "Transfer",
      "type": "event"
    },
    {
      "anonymous": false,
      "inputs": [
        {
          "indexed": false,
          "internalType": "address",
          "name": "account",
          "type": "address"
        }
      ],
      "name": "Unpaused",
      "type": "event"
    },
    {
      "inputs": [],
      "name": "NUM_TOKENS",
      "outputs": [
        {
          "internalType": "uint256",
          "name": "",
          "type": "uint256"
        }
      ],
      "stateMutability": "view",
      "type": "function",
      "constant": true
    },
    {
      "inputs": [
        {
          "internalType": "address",
          "name": "to",
          "type": "address"
        },
        {
          "internalType": "uint256",
          "name": "tokenId",
          "type": "uint256"
        }
      ],
      "name": "approve",
      "outputs": [],
      "stateMutability": "nonpayable",
      "type": "function"
    },
    {
      "inputs": [
        {
          "internalType": "address",
          "name": "owner",
          "type": "address"
        }
      ],
      "name": "balanceOf",
      "outputs": [
        {
          "internalType": "uint256",
          "name": "",
          "type": "uint256"
        }
      ],
      "stateMutability": "view",
      "type": "function",
      "constant": true
    },
    {
      "inputs": [
        {
          "internalType": "uint256",
          "name": "tokenId",
          "type": "uint256"
        }
      ],
      "name": "getApproved",
      "outputs": [
        {
          "internalType": "address",
          "name": "",
          "type": "address"
        }
      ],
      "stateMutability": "view",
      "type": "function",
      "constant": true
    },
    {
      "inputs": [
        {
          "internalType": "address",
          "name": "owner",
          "type": "address"
        },
        {
          "internalType": "address",
          "name": "operator",
          "type": "address"
        }
      ],
      "name": "isApprovedForAll",
      "outputs": [
        {
          "internalType": "bool",
          "name": "",
          "type": "bool"
        }
      ],
      "stateMutability": "view",
      "type": "function",
      "constant": true
    },
    {
      "inputs": [],
      "name": "name",
      "outputs": [
        {
          "internalType": "string",
          "name": "",
          "type": "string"
        }
      ],
      "stateMutability": "view",
      "type": "function",
      "constant": true
    },
    {
      "inputs": [],
      "name": "owner",
      "outputs": [
        {
          "internalType": "address",
          "name": "",
          "type": "address"
        }
      ],
      "stateMutability": "view",
      "type": "function",
      "constant": true
    },
    {
      "inputs": [
        {
          "internalType": "uint256",
          "name": "tokenId",
          "type": "uint256"
        }
      ],
      "name": "ownerOf",
      "outputs": [
        {
          "internalType": "address",
          "name": "",
          "type": "address"
        }
      ],
      "stateMutability": "view",
      "type": "function",
      "constant": true
    },
    {
      "inputs": [],
      "name": "paused",
      "outputs": [
        {
          "internalType": "bool",
          "name": "",
          "type": "bool"
        }
      ],
      "stateMutability": "view",
      "type": "function",
      "constant": true
    },
    {
      "inputs": [],
      "name": "renounceOwnership",
      "outputs": [],
      "stateMutability": "nonpayable",
      "type": "function"
    },
    {
      "inputs": [
        {
          "internalType": "address",
          "name": "from",
          "type": "address"
        },
        {
          "internalType": "address",
          "name": "to",
          "type": "address"
        },
        {
          "internalType": "uint256",
          "name": "tokenId",
          "type": "uint256"
        }
      ],
      "name": "safeTransferFrom",
      "outputs": [],
      "stateMutability": "nonpayable",
      "type": "function"
    },
    {
      "inputs": [
        {
          "internalType": "address",
          "name": "from",
          "type": "address"
        },
        {
          "internalType": "address",
          "name": "to",
          "type": "address"
        },
        {
          "internalType": "uint256",
          "name": "tokenId",
          "type": "uint256"
        },
        {
          "internalType": "bytes",
          "name": "data",
          "type": "bytes"
        }
      ],
      "name": "safeTransferFrom",
      "outputs": [],
      "stateMutability": "nonpayable",
      "type": "function"
    },
    {
      "inputs": [
        {
          "internalType": "address",
          "name": "operator",
          "type": "address"
        },
        {
          "internalType": "bool",
          "name": "approved",
          "type": "bool"
        }
      ],
      "name": "setApprovalForAll",
      "outputs": [],
      "stateMutability": "nonpayable",
      "type": "function"
    },
    {
      "inputs": [],
      "name": "symbol",
      "outputs": [
        {
          "internalType": "string",
          "name": "",
          "type": "string"
        }
      ],
      "stateMutability": "view",
      "type": "function",
      "constant": true
    },
    {
      "inputs": [
        {
          "internalType": "uint256",
          "name": "index",
          "type": "uint256"
        }
      ],
      "name": "tokenByIndex",
      "outputs": [
        {
          "internalType": "uint256",
          "name": "",
          "type": "uint256"
        }
      ],
      "stateMutability": "view",
      "type": "function",
      "constant": true
    },
    {
      "inputs": [
        {
          "internalType": "address",
          "name": "owner",
          "type": "address"
        },
        {
          "internalType": "uint256",
          "name": "index",
          "type": "uint256"
        }
      ],
      "name": "tokenOfOwnerByIndex",
      "outputs": [
        {
          "internalType": "uint256",
          "name": "",
          "type": "uint256"
        }
      ],
      "stateMutability": "view",
      "type": "function",
      "constant": true
    },
    {
      "inputs": [
        {
          "internalType": "uint256",
          "name": "tokenId",
          "type": "uint256"
        }
      ],
      "name": "tokenURI",
      "outputs": [
        {
          "internalType": "string",
          "name": "",
          "type": "string"
        }
      ],
      "stateMutability": "view",
      "type": "function",
      "constant": true
    },
    {
      "inputs": [],
      "name": "totalSupply",
      "outputs": [
        {
          "internalType": "uint256",
          "name": "",
          "type": "uint256"
        }
      ],
      "stateMutability": "view",
      "type": "function",
      "constant": true
    },
    {
      "inputs": [
        {
          "internalType": "address",
          "name": "from",
          "type": "address"
        },
        {
          "internalType": "address",
          "name": "to",
          "type": "address"
        },
        {
          "internalType": "uint256",
          "name": "tokenId",
          "type": "uint256"
        }
      ],
      "name": "transferFrom",
      "outputs": [],
      "stateMutability": "nonpayable",
      "type": "function"
    },
    {
      "inputs": [
        {
          "internalType": "address",
          "name": "newOwner",
          "type": "address"
        }
      ],
      "name": "transferOwnership",
      "outputs": [],
      "stateMutability": "nonpayable",
      "type": "function"
    },
    {
      "inputs": [],
      "name": "pause",
      "outputs": [],
      "stateMutability": "nonpayable",
      "type": "function"
    },
    {
      "inputs": [],
      "name": "unpause",
      "outputs": [],
      "stateMutability": "nonpayable",
      "type": "function"
    },
    {
      "inputs": [
        {
          "internalType": "bytes4",
          "name": "interfaceId",
          "type": "bytes4"
        }
      ],
      "name": "supportsInterface",
      "outputs": [
        {
          "internalType": "bool",
          "name": "",
          "type": "bool"
        }
      ],
      "stateMutability": "view",
      "type": "function",
      "constant": true
    },
    {
      "inputs": [
        {
          "internalType": "uint256",
          "name": "tokenId",
          "type": "uint256"
        }
      ],
      "name": "tokenPalette",
      "outputs": [
        {
          "internalType": "uint8[3][2]",
          "name": "",
          "type": "uint8[3][2]"
        }
      ],
      "stateMutability": "view",
      "type": "function",
      "constant": true
    }
  ],
  "bytecode": "0x60806040523480156200001157600080fd5b506040518060400160405280600881526020017f46616365436f696e0000000000000000000000000000000000000000000000008152506040518060400160405280600381526020017f464143000000000000000000000000000000000000000000000000000000000081525081600090816200008f9190620010dc565b508060019081620000a19190620010dc565b5050506000600a60006101000a81548160ff021916908315150217905550620000df620000d36200011e60201b60201c565b6200012660201b60201c565b6000600190505b601881116200011757620001013382620001ec60201b60201c565b80806200010e90620011f2565b915050620000e6565b506200181a565b600033905090565b6000600a60019054906101000a900473ffffffffffffffffffffffffffffffffffffffff16905081600a60016101000a81548173ffffffffffffffffffffffffffffffffffffffff021916908373ffffffffffffffffffffffffffffffffffffffff1602179055508173ffffffffffffffffffffffffffffffffffffffff168173ffffffffffffffffffffffffffffffffffffffff167f8be0079c531659141344cd1fd0a4f28419497f9722a3daafe3b4186f6b6457e060405160405180910390a35050565b6200020e8282604051806020016040528060008152506200021260201b60201c565b5050565b6200022483836200028060201b60201c565b620002396000848484620004c660201b60201c565b6200027b576040517f08c379a00000000000000000000000000000000000000000000000000000000081526004016200027290620012c6565b60405180910390fd5b505050565b600073ffffffffffffffffffffffffffffffffffffffff168273ffffffffffffffffffffffffffffffffffffffff1603620002f2576040517f08c379a0000000000000000000000000000000000000000000000000000000008152600401620002e99062001338565b60405180910390fd5b62000303816200066f60201b60201c565b1562000346576040517f08c379a00000000000000000000000000000000000000000000000000000000081526004016200033d90620013aa565b60405180910390fd5b6200035c600083836001620006b860201b60201c565b6200036d816200066f60201b60201c565b15620003b0576040517f08c379a0000000000000000000000000000000000000000000000000000000008152600401620003a790620013aa565b60405180910390fd5b6001600360008473ffffffffffffffffffffffffffffffffffffffff1673ffffffffffffffffffffffffffffffffffffffff16815260200190815260200160002060008282540192505081905550816002600083815260200190815260200160002060006101000a81548173ffffffffffffffffffffffffffffffffffffffff021916908373ffffffffffffffffffffffffffffffffffffffff160217905550808273ffffffffffffffffffffffffffffffffffffffff16600073ffffffffffffffffffffffffffffffffffffffff167fddf252ad1be2c89b69c2b068fc378daa952ba7f163c4a11628f55a4df523b3ef60405160405180910390a4620004c2600083836001620006e760201b60201c565b5050565b6000620004f48473ffffffffffffffffffffffffffffffffffffffff16620006ed60201b62000dc21760201c565b1562000662578373ffffffffffffffffffffffffffffffffffffffff1663150b7a02620005266200011e60201b60201c565b8786866040518563ffffffff1660e01b81526004016200054a9493929190620014bc565b6020604051808303816000875af19250505080156200058957506040513d601f19601f8201168201806040525081019062000586919062001572565b60015b62000611573d8060008114620005bc576040519150601f19603f3d011682016040523d82523d6000602084013e620005c1565b606091505b50600081510362000609576040517f08c379a00000000000000000000000000000000000000000000000000000000081526004016200060090620012c6565b60405180910390fd5b805181602001fd5b63150b7a0260e01b7bffffffffffffffffffffffffffffffffffffffffffffffffffffffff1916817bffffffffffffffffffffffffffffffffffffffffffffffffffffffff19161491505062000667565b600190505b949350505050565b60008073ffffffffffffffffffffffffffffffffffffffff1662000699836200071060201b60201c565b73ffffffffffffffffffffffffffffffffffffffff1614159050919050565b620006c86200074d60201b60201c565b620006e184848484620007a260201b62000de51760201c565b50505050565b50505050565b6000808273ffffffffffffffffffffffffffffffffffffffff163b119050919050565b60006002600083815260200190815260200160002060009054906101000a900473ffffffffffffffffffffffffffffffffffffffff169050919050565b6200075d6200093660201b60201c565b15620007a0576040517f08c379a00000000000000000000000000000000000000000000000000000000081526004016200079790620015f4565b60405180910390fd5b565b620007bb848484846200094d60201b62000f431760201c565b600181111562000802576040517f08c379a0000000000000000000000000000000000000000000000000000000008152600401620007f9906200168c565b60405180910390fd5b6000829050600073ffffffffffffffffffffffffffffffffffffffff168573ffffffffffffffffffffffffffffffffffffffff160362000853576200084d8162000a7a60201b60201c565b6200089b565b8373ffffffffffffffffffffffffffffffffffffffff168573ffffffffffffffffffffffffffffffffffffffff16146200089a5762000899858262000ac360201b60201c565b5b5b600073ffffffffffffffffffffffffffffffffffffffff168473ffffffffffffffffffffffffffffffffffffffff1603620008e757620008e18162000c4060201b60201c565b6200092f565b8473ffffffffffffffffffffffffffffffffffffffff168473ffffffffffffffffffffffffffffffffffffffff16146200092e576200092d848262000d1c60201b60201c565b5b5b5050505050565b6000600a60009054906101000a900460ff16905090565b600181111562000a7457600073ffffffffffffffffffffffffffffffffffffffff168473ffffffffffffffffffffffffffffffffffffffff1614620009e55780600360008673ffffffffffffffffffffffffffffffffffffffff1673ffffffffffffffffffffffffffffffffffffffff1681526020019081526020016000206000828254620009dd9190620016ae565b925050819055505b600073ffffffffffffffffffffffffffffffffffffffff168373ffffffffffffffffffffffffffffffffffffffff161462000a735780600360008573ffffffffffffffffffffffffffffffffffffffff1673ffffffffffffffffffffffffffffffffffffffff168152602001908152602001600020600082825462000a6b9190620016e9565b925050819055505b5b50505050565b6008805490506009600083815260200190815260200160002081905550600881908060018154018082558091505060019003906000526020600020016000909190919091505550565b6000600162000add8462000da860201b62000a321760201c565b62000ae99190620016ae565b905060006007600084815260200190815260200160002054905081811462000bcf576000600660008673ffffffffffffffffffffffffffffffffffffffff1673ffffffffffffffffffffffffffffffffffffffff168152602001908152602001600020600084815260200190815260200160002054905080600660008773ffffffffffffffffffffffffffffffffffffffff1673ffffffffffffffffffffffffffffffffffffffff168152602001908152602001600020600084815260200190815260200160002081905550816007600083815260200190815260200160002081905550505b6007600084815260200190815260200160002060009055600660008573ffffffffffffffffffffffffffffffffffffffff1673ffffffffffffffffffffffffffffffffffffffff16815260200190815260200160002060008381526020019081526020016000206000905550505050565b6000600160088054905062000c569190620016ae565b905060006009600084815260200190815260200160002054905060006008838154811062000c895762000c8862001724565b5b90600052602060002001549050806008838154811062000cae5762000cad62001724565b5b90600052602060002001819055508160096000838152602001908152602001600020819055506009600085815260200190815260200160002060009055600880548062000d005762000cff62001753565b5b6001900381819060005260206000200160009055905550505050565b600062000d348362000da860201b62000a321760201c565b905081600660008573ffffffffffffffffffffffffffffffffffffffff1673ffffffffffffffffffffffffffffffffffffffff168152602001908152602001600020600083815260200190815260200160002081905550806007600084815260200190815260200160002081905550505050565b60008073ffffffffffffffffffffffffffffffffffffffff168273ffffffffffffffffffffffffffffffffffffffff160362000e1b576040517f08c379a000000000000000000000000000000000000000000000000000000000815260040162000e1290620017f8565b60405180910390fd5b600360008373ffffffffffffffffffffffffffffffffffffffff1673ffffffffffffffffffffffffffffffffffffffff168152602001908152602001600020549050919050565b600081519050919050565b7f4e487b7100000000000000000000000000000000000000000000000000000000600052604160045260246000fd5b7f4e487b7100000000000000000000000000000000000000000000000000000000600052602260045260246000fd5b6000600282049050600182168062000ee457607f821691505b60208210810362000efa5762000ef962000e9c565b5b50919050565b60008190508160005260206000209050919050565b60006020601f8301049050919050565b600082821b905092915050565b60006008830262000f647fffffffffffffffffffffffffffffffffffffffffffffffffffffffffffffffff8262000f25565b62000f70868362000f25565b95508019841693508086168417925050509392505050565b6000819050919050565b6000819050919050565b600062000fbd62000fb762000fb18462000f88565b62000f92565b62000f88565b9050919050565b6000819050919050565b62000fd98362000f9c565b62000ff162000fe88262000fc4565b84845462000f32565b825550505050565b600090565b6200100862000ff9565b6200101581848462000fce565b505050565b5b818110156200103d576200103160008262000ffe565b6001810190506200101b565b5050565b601f8211156200108c57620010568162000f00565b620010618462000f15565b8101602085101562001071578190505b62001089620010808562000f15565b8301826200101a565b50505b505050565b600082821c905092915050565b6000620010b16000198460080262001091565b1980831691505092915050565b6000620010cc83836200109e565b9150826002028217905092915050565b620010e78262000e62565b67ffffffffffffffff81111562001103576200110262000e6d565b5b6200110f825462000ecb565b6200111c82828562001041565b600060209050601f8311600181146200115457600084156200113f578287015190505b6200114b8582620010be565b865550620011bb565b601f198416620011648662000f00565b60005b828110156200118e5784890151825560018201915060208501945060208101905062001167565b86831015620011ae5784890151620011aa601f8916826200109e565b8355505b6001600288020188555050505b505050505050565b7f4e487b7100000000000000000000000000000000000000000000000000000000600052601160045260246000fd5b6000620011ff8262000f88565b91507fffffffffffffffffffffffffffffffffffffffffffffffffffffffffffffffff8203620012345762001233620011c3565b5b600182019050919050565b600082825260208201905092915050565b7f4552433732313a207472616e7366657220746f206e6f6e20455243373231526560008201527f63656976657220696d706c656d656e7465720000000000000000000000000000602082015250565b6000620012ae6032836200123f565b9150620012bb8262001250565b604082019050919050565b60006020820190508181036000830152620012e1816200129f565b9050919050565b7f4552433732313a206d696e7420746f20746865207a65726f2061646472657373600082015250565b6000620013206020836200123f565b91506200132d82620012e8565b602082019050919050565b60006020820190508181036000830152620013538162001311565b9050919050565b7f4552433732313a20746f6b656e20616c7265616479206d696e74656400000000600082015250565b600062001392601c836200123f565b91506200139f826200135a565b602082019050919050565b60006020820190508181036000830152620013c58162001383565b9050919050565b600073ffffffffffffffffffffffffffffffffffffffff82169050919050565b6000620013f982620013cc565b9050919050565b6200140b81620013ec565b82525050565b6200141c8162000f88565b82525050565b600081519050919050565b600082825260208201905092915050565b60005b838110156200145e57808201518184015260208101905062001441565b60008484015250505050565b6000601f19601f8301169050919050565b6000620014888262001422565b6200149481856200142d565b9350620014a68185602086016200143e565b620014b1816200146a565b840191505092915050565b6000608082019050620014d3600083018762001400565b620014e2602083018662001400565b620014f1604083018562001411565b81810360608301526200150581846200147b565b905095945050505050565b600080fd5b60007fffffffff0000000000000000000000000000000000000000000000000000000082169050919050565b6200154c8162001515565b81146200155857600080fd5b50565b6000815190506200156c8162001541565b92915050565b6000602082840312156200158b576200158a62001510565b5b60006200159b848285016200155b565b91505092915050565b7f5061757361626c653a2070617573656400000000000000000000000000000000600082015250565b6000620015dc6010836200123f565b9150620015e982620015a4565b602082019050919050565b600060208201905081810360008301526200160f81620015cd565b9050919050565b7f455243373231456e756d657261626c653a20636f6e736563757469766520747260008201527f616e7366657273206e6f7420737570706f727465640000000000000000000000602082015250565b6000620016746035836200123f565b9150620016818262001616565b604082019050919050565b60006020820190508181036000830152620016a78162001665565b9050919050565b6000620016bb8262000f88565b9150620016c88362000f88565b9250828203905081811115620016e357620016e2620011c3565b5b92915050565b6000620016f68262000f88565b9150620017038362000f88565b92508282019050808211156200171e576200171d620011c3565b5b92915050565b7f4e487b7100000000000000000000000000000000000000000000000000000000600052603260045260246000fd5b7f4e487b7100000000000000000000000000000000000000000000000000000000600052603160045260246000fd5b7f4552433732313a2061646472657373207a65726f206973206e6f74206120766160008201527f6c6964206f776e65720000000000000000000000000000000000000000000000602082015250565b6000620017e06029836200123f565b9150620017ed8262001782565b604082019050919050565b600060208201905081810360008301526200181381620017d1565b9050919050565b6139f0806200182a6000396000f3fe608060405234801561001057600080fd5b50600436106101585760003560e01c80635c975abb116100c357806395d89b411161007c57806395d89b41146103b5578063a22cb465146103d3578063b88d4fde146103ef578063c87b56dd1461040b578063e985e9c51461043b578063f2fde38b1461046b57610158565b80635c975abb146103055780636352211e1461032357806370a0823114610353578063715018a6146103835780638456cb591461038d5780638da5cb5b1461039757610158565b806323b872dd1161011557806323b872dd146102455780632f745c59146102615780633f4ba83a146102915780634149db481461029b57806342842e0e146102b95780634f6ccce7146102d557610158565b806301ffc9a71461015d57806306fdde031461018d578063081812fc146101ab578063095ea7b3146101db57806312a1d374146101f757806318160ddd14610227575b600080fd5b61017760048036038101906101729190612544565b610487565b604051610184919061258c565b60405180910390f35b610195610499565b6040516101a29190612637565b60405180910390f35b6101c560048036038101906101c0919061268f565b61052b565b6040516101d291906126fd565b60405180910390f35b6101f560048036038101906101f09190612744565b610571565b005b610211600480360381019061020c919061268f565b610688565b60405161021e91906128d8565b60405180910390f35b61022f6107db565b60405161023c9190612902565b60405180910390f35b61025f600480360381019061025a919061291d565b6107e8565b005b61027b60048036038101906102769190612744565b610848565b6040516102889190612902565b60405180910390f35b6102996108ed565b005b6102a36108ff565b6040516102b09190612902565b60405180910390f35b6102d360048036038101906102ce919061291d565b610904565b005b6102ef60048036038101906102ea919061268f565b610924565b6040516102fc9190612902565b60405180910390f35b61030d610995565b60405161031a919061258c565b60405180910390f35b61033d6004803603810190610338919061268f565b6109ac565b60405161034a91906126fd565b60405180910390f35b61036d60048036038101906103689190612970565b610a32565b60405161037a9190612902565b60405180910390f35b61038b610ae9565b005b610395610afd565b005b61039f610b0f565b6040516103ac91906126fd565b60405180910390f35b6103bd610b39565b6040516103ca9190612637565b60405180910390f35b6103ed60048036038101906103e891906129c9565b610bcb565b005b61040960048036038101906104049190612b3e565b610be1565b005b6104256004803603810190610420919061268f565b610c43565b6040516104329190612637565b60405180910390f35b61045560048036038101906104509190612bc1565b610cab565b604051610462919061258c565b60405180910390f35b61048560048036038101906104809190612970565b610d3f565b005b600061049282611069565b9050919050565b6060600080546104a890612c30565b80601f01602080910402602001604051908101604052809291908181526020018280546104d490612c30565b80156105215780601f106104f657610100808354040283529160200191610521565b820191906000526020600020905b81548152906001019060200180831161050457829003601f168201915b5050505050905090565b6000610536826110e3565b6004600083815260200190815260200160002060009054906101000a900473ffffffffffffffffffffffffffffffffffffffff169050919050565b600061057c826109ac565b90508073ffffffffffffffffffffffffffffffffffffffff168373ffffffffffffffffffffffffffffffffffffffff16036105ec576040517f08c379a00000000000000000000000000000000000000000000000000000000081526004016105e390612cd3565b60405180910390fd5b8073ffffffffffffffffffffffffffffffffffffffff1661060b61112e565b73ffffffffffffffffffffffffffffffffffffffff16148061063a57506106398161063461112e565b610cab565b5b610679576040517f08c379a000000000000000000000000000000000000000000000000000000000815260040161067090612d65565b60405180910390fd5b6106838383611136565b505050565b610690612489565b6000821180156106a1575060188211155b6106e0576040517f08c379a00000000000000000000000000000000000000000000000000000000081526004016106d790612dd1565b60405180910390fd5b600060026106ed846109ac565b846040516020016106ff929190612e5a565b60405160208183030381529060405260405161071b9190612ecd565b602060405180830381855afa158015610738573d6000803e3d6000fd5b5050506040513d601f19601f8201168201806040525081019061075b9190612f1a565b90506107656124b6565b61076d6124b6565b610779836000846111ef565b6000600f90505b60208110156107bb57610795846001846111ef565b60206107a184846112c9565b13156107bb576003816107b49190612f76565b9050610780565b506040518060400160405280838152602001828152509350505050919050565b6000600880549050905090565b6107f96107f361112e565b826113c5565b610838576040517f08c379a000000000000000000000000000000000000000000000000000000000815260040161082f9061301c565b60405180910390fd5b61084383838361145a565b505050565b600061085383610a32565b8210610894576040517f08c379a000000000000000000000000000000000000000000000000000000000815260040161088b906130ae565b60405180910390fd5b600660008473ffffffffffffffffffffffffffffffffffffffff1673ffffffffffffffffffffffffffffffffffffffff168152602001908152602001600020600083815260200190815260200160002054905092915050565b6108f5611753565b6108fd6117d1565b565b601881565b61091f83838360405180602001604052806000815250610be1565b505050565b600061092e6107db565b821061096f576040517f08c379a000000000000000000000000000000000000000000000000000000000815260040161096690613140565b60405180910390fd5b6008828154811061098357610982613160565b5b90600052602060002001549050919050565b6000600a60009054906101000a900460ff16905090565b6000806109b883611834565b9050600073ffffffffffffffffffffffffffffffffffffffff168173ffffffffffffffffffffffffffffffffffffffff1603610a29576040517f08c379a0000000000000000000000000000000000000000000000000000000008152600401610a20906131db565b60405180910390fd5b80915050919050565b60008073ffffffffffffffffffffffffffffffffffffffff168273ffffffffffffffffffffffffffffffffffffffff1603610aa2576040517f08c379a0000000000000000000000000000000000000000000000000000000008152600401610a999061326d565b60405180910390fd5b600360008373ffffffffffffffffffffffffffffffffffffffff1673ffffffffffffffffffffffffffffffffffffffff168152602001908152602001600020549050919050565b610af1611753565b610afb6000611871565b565b610b05611753565b610b0d611937565b565b6000600a60019054906101000a900473ffffffffffffffffffffffffffffffffffffffff16905090565b606060018054610b4890612c30565b80601f0160208091040260200160405190810160405280929190818152602001828054610b7490612c30565b8015610bc15780601f10610b9657610100808354040283529160200191610bc1565b820191906000526020600020905b815481529060010190602001808311610ba457829003601f168201915b5050505050905090565b610bdd610bd661112e565b838361199a565b5050565b610bf2610bec61112e565b836113c5565b610c31576040517f08c379a0000000000000000000000000000000000000000000000000000000008152600401610c289061301c565b60405180910390fd5b610c3d84848484611b06565b50505050565b6060610c4e826110e3565b6000610c58611b62565b90506000815111610c785760405180602001604052806000815250610ca3565b80610c8284611b79565b604051602001610c939291906132c9565b6040516020818303038152906040525b915050919050565b6000600560008473ffffffffffffffffffffffffffffffffffffffff1673ffffffffffffffffffffffffffffffffffffffff16815260200190815260200160002060008373ffffffffffffffffffffffffffffffffffffffff1673ffffffffffffffffffffffffffffffffffffffff16815260200190815260200160002060009054906101000a900460ff16905092915050565b610d47611753565b600073ffffffffffffffffffffffffffffffffffffffff168173ffffffffffffffffffffffffffffffffffffffff1603610db6576040517f08c379a0000000000000000000000000000000000000000000000000000000008152600401610dad9061335f565b60405180910390fd5b610dbf81611871565b50565b6000808273ffffffffffffffffffffffffffffffffffffffff163b119050919050565b610df184848484610f43565b6001811115610e35576040517f08c379a0000000000000000000000000000000000000000000000000000000008152600401610e2c906133f1565b60405180910390fd5b6000829050600073ffffffffffffffffffffffffffffffffffffffff168573ffffffffffffffffffffffffffffffffffffffff1603610e7c57610e7781611c47565b610ebb565b8373ffffffffffffffffffffffffffffffffffffffff168573ffffffffffffffffffffffffffffffffffffffff1614610eba57610eb98582611c90565b5b5b600073ffffffffffffffffffffffffffffffffffffffff168473ffffffffffffffffffffffffffffffffffffffff1603610efd57610ef881611dfd565b610f3c565b8473ffffffffffffffffffffffffffffffffffffffff168473ffffffffffffffffffffffffffffffffffffffff1614610f3b57610f3a8482611ece565b5b5b5050505050565b600181111561106357600073ffffffffffffffffffffffffffffffffffffffff168473ffffffffffffffffffffffffffffffffffffffff1614610fd75780600360008673ffffffffffffffffffffffffffffffffffffffff1673ffffffffffffffffffffffffffffffffffffffff1681526020019081526020016000206000828254610fcf9190613411565b925050819055505b600073ffffffffffffffffffffffffffffffffffffffff168373ffffffffffffffffffffffffffffffffffffffff16146110625780600360008573ffffffffffffffffffffffffffffffffffffffff1673ffffffffffffffffffffffffffffffffffffffff168152602001908152602001600020600082825461105a9190612f76565b925050819055505b5b50505050565b60007f780e9d63000000000000000000000000000000000000000000000000000000007bffffffffffffffffffffffffffffffffffffffffffffffffffffffff1916827bffffffffffffffffffffffffffffffffffffffffffffffffffffffff191614806110dc57506110db82611f4d565b5b9050919050565b6110ec8161202f565b61112b576040517f08c379a0000000000000000000000000000000000000000000000000000000008152600401611122906131db565b60405180910390fd5b50565b600033905090565b816004600083815260200190815260200160002060006101000a81548173ffffffffffffffffffffffffffffffffffffffff021916908373ffffffffffffffffffffffffffffffffffffffff160217905550808273ffffffffffffffffffffffffffffffffffffffff166111a9836109ac565b73ffffffffffffffffffffffffffffffffffffffff167f8c5be1e5ebec7d5bd14f71427d1e84f3dd0314c0f7b2291e5b200ac8c7c3b92560405160405180910390a45050565b82826020811061120257611201613160565b5b1a60f81b60f81c8160006003811061121d5761121c613160565b5b602002019060ff16908160ff16815250508260018361123c9190612f76565b6020811061124d5761124c613160565b5b1a60f81b60f81c8160016003811061126857611267613160565b5b602002019060ff16908160ff1681525050826002836112879190612f76565b6020811061129857611297613160565b5b1a60f81b60f81c816002600381106112b3576112b2613160565b5b602002019060ff16908160ff1681525050505050565b6000611315826002600381106112e2576112e1613160565b5b602002015160ff16846002600381106112fe576112fd613160565b5b602002015160ff16611310919061344f565b612070565b61135f8360016003811061132c5761132b613160565b5b602002015160ff168560016003811061134857611347613160565b5b602002015160ff1661135a919061344f565b612070565b6113a98460006003811061137657611375613160565b5b602002015160ff168660006003811061139257611391613160565b5b602002015160ff166113a4919061344f565b612070565b6113b39190613492565b6113bd9190613492565b905092915050565b6000806113d1836109ac565b90508073ffffffffffffffffffffffffffffffffffffffff168473ffffffffffffffffffffffffffffffffffffffff16148061141357506114128185610cab565b5b8061145157508373ffffffffffffffffffffffffffffffffffffffff166114398461052b565b73ffffffffffffffffffffffffffffffffffffffff16145b91505092915050565b8273ffffffffffffffffffffffffffffffffffffffff1661147a826109ac565b73ffffffffffffffffffffffffffffffffffffffff16146114d0576040517f08c379a00000000000000000000000000000000000000000000000000000000081526004016114c790613548565b60405180910390fd5b600073ffffffffffffffffffffffffffffffffffffffff168273ffffffffffffffffffffffffffffffffffffffff160361153f576040517f08c379a0000000000000000000000000000000000000000000000000000000008152600401611536906135da565b60405180910390fd5b61154c8383836001612092565b8273ffffffffffffffffffffffffffffffffffffffff1661156c826109ac565b73ffffffffffffffffffffffffffffffffffffffff16146115c2576040517f08c379a00000000000000000000000000000000000000000000000000000000081526004016115b990613548565b60405180910390fd5b6004600082815260200190815260200160002060006101000a81549073ffffffffffffffffffffffffffffffffffffffff02191690556001600360008573ffffffffffffffffffffffffffffffffffffffff1673ffffffffffffffffffffffffffffffffffffffff168152602001908152602001600020600082825403925050819055506001600360008473ffffffffffffffffffffffffffffffffffffffff1673ffffffffffffffffffffffffffffffffffffffff16815260200190815260200160002060008282540192505081905550816002600083815260200190815260200160002060006101000a81548173ffffffffffffffffffffffffffffffffffffffff021916908373ffffffffffffffffffffffffffffffffffffffff160217905550808273ffffffffffffffffffffffffffffffffffffffff168473ffffffffffffffffffffffffffffffffffffffff167fddf252ad1be2c89b69c2b068fc378daa952ba7f163c4a11628f55a4df523b3ef60405160405180910390a461174e83838360016120ac565b505050565b61175b61112e565b73ffffffffffffffffffffffffffffffffffffffff16611779610b0f565b73ffffffffffffffffffffffffffffffffffffffff16146117cf576040517f08c379a00000000000000000000000000000000000000000000000000000000081526004016117c690613646565b60405180910390fd5b565b6117d96120b2565b6000600a60006101000a81548160ff0219169083151502179055507f5db9ee0a495bf2e6ff9c91a7834c1ba4fdd244a5e8aa4e537bd38aeae4b073aa61181d61112e565b60405161182a91906126fd565b60405180910390a1565b60006002600083815260200190815260200160002060009054906101000a900473ffffffffffffffffffffffffffffffffffffffff169050919050565b6000600a60019054906101000a900473ffffffffffffffffffffffffffffffffffffffff16905081600a60016101000a81548173ffffffffffffffffffffffffffffffffffffffff021916908373ffffffffffffffffffffffffffffffffffffffff1602179055508173ffffffffffffffffffffffffffffffffffffffff168173ffffffffffffffffffffffffffffffffffffffff167f8be0079c531659141344cd1fd0a4f28419497f9722a3daafe3b4186f6b6457e060405160405180910390a35050565b61193f6120fb565b6001600a60006101000a81548160ff0219169083151502179055507f62e78cea01bee320cd4e420270b5ea74000d11b0c9f74754ebdbfc544b05a25861198361112e565b60405161199091906126fd565b60405180910390a1565b8173ffffffffffffffffffffffffffffffffffffffff168373ffffffffffffffffffffffffffffffffffffffff1603611a08576040517f08c379a00000000000000000000000000000000000000000000000000000000081526004016119ff906136b2565b60405180910390fd5b80600560008573ffffffffffffffffffffffffffffffffffffffff1673ffffffffffffffffffffffffffffffffffffffff16815260200190815260200160002060008473ffffffffffffffffffffffffffffffffffffffff1673ffffffffffffffffffffffffffffffffffffffff16815260200190815260200160002060006101000a81548160ff0219169083151502179055508173ffffffffffffffffffffffffffffffffffffffff168373ffffffffffffffffffffffffffffffffffffffff167f17307eab39ab6107e8899845ad3d59bd9653f200f220920489ca2b5937696c3183604051611af9919061258c565b60405180910390a3505050565b611b1184848461145a565b611b1d84848484612145565b611b5c576040517f08c379a0000000000000000000000000000000000000000000000000000000008152600401611b5390613744565b60405180910390fd5b50505050565b606060405180602001604052806000815250905090565b606060006001611b88846122cc565b01905060008167ffffffffffffffff811115611ba757611ba6612a13565b5b6040519080825280601f01601f191660200182016040528015611bd95781602001600182028036833780820191505090505b509050600082602001820190505b600115611c3c578080600190039150507f3031323334353637383961626364656600000000000000000000000000000000600a86061a8153600a8581611c3057611c2f613764565b5b04945060008503611be7575b819350505050919050565b6008805490506009600083815260200190815260200160002081905550600881908060018154018082558091505060019003906000526020600020016000909190919091505550565b60006001611c9d84610a32565b611ca79190613411565b9050600060076000848152602001908152602001600020549050818114611d8c576000600660008673ffffffffffffffffffffffffffffffffffffffff1673ffffffffffffffffffffffffffffffffffffffff168152602001908152602001600020600084815260200190815260200160002054905080600660008773ffffffffffffffffffffffffffffffffffffffff1673ffffffffffffffffffffffffffffffffffffffff168152602001908152602001600020600084815260200190815260200160002081905550816007600083815260200190815260200160002081905550505b6007600084815260200190815260200160002060009055600660008573ffffffffffffffffffffffffffffffffffffffff1673ffffffffffffffffffffffffffffffffffffffff16815260200190815260200160002060008381526020019081526020016000206000905550505050565b60006001600880549050611e119190613411565b9050600060096000848152602001908152602001600020549050600060088381548110611e4157611e40613160565b5b906000526020600020015490508060088381548110611e6357611e62613160565b5b906000526020600020018190555081600960008381526020019081526020016000208190555060096000858152602001908152602001600020600090556008805480611eb257611eb1613793565b5b6001900381819060005260206000200160009055905550505050565b6000611ed983610a32565b905081600660008573ffffffffffffffffffffffffffffffffffffffff1673ffffffffffffffffffffffffffffffffffffffff168152602001908152602001600020600083815260200190815260200160002081905550806007600084815260200190815260200160002081905550505050565b60007f80ac58cd000000000000000000000000000000000000000000000000000000007bffffffffffffffffffffffffffffffffffffffffffffffffffffffff1916827bffffffffffffffffffffffffffffffffffffffffffffffffffffffff1916148061201857507f5b5e139f000000000000000000000000000000000000000000000000000000007bffffffffffffffffffffffffffffffffffffffffffffffffffffffff1916827bffffffffffffffffffffffffffffffffffffffffffffffffffffffff1916145b8061202857506120278261241f565b5b9050919050565b60008073ffffffffffffffffffffffffffffffffffffffff1661205183611834565b73ffffffffffffffffffffffffffffffffffffffff1614159050919050565b6000808212156120895781612084906137c2565b61208b565b815b9050919050565b61209a6120fb565b6120a684848484610de5565b50505050565b50505050565b6120ba610995565b6120f9576040517f08c379a00000000000000000000000000000000000000000000000000000000081526004016120f090613856565b60405180910390fd5b565b612103610995565b15612143576040517f08c379a000000000000000000000000000000000000000000000000000000000815260040161213a906138c2565b60405180910390fd5b565b60006121668473ffffffffffffffffffffffffffffffffffffffff16610dc2565b156122bf578373ffffffffffffffffffffffffffffffffffffffff1663150b7a0261218f61112e565b8786866040518563ffffffff1660e01b81526004016121b1949392919061392c565b6020604051808303816000875af19250505080156121ed57506040513d601f19601f820116820180604052508101906121ea919061398d565b60015b61226f573d806000811461221d576040519150601f19603f3d011682016040523d82523d6000602084013e612222565b606091505b506000815103612267576040517f08c379a000000000000000000000000000000000000000000000000000000000815260040161225e90613744565b60405180910390fd5b805181602001fd5b63150b7a0260e01b7bffffffffffffffffffffffffffffffffffffffffffffffffffffffff1916817bffffffffffffffffffffffffffffffffffffffffffffffffffffffff1916149150506122c4565b600190505b949350505050565b600080600090507a184f03e93ff9f4daa797ed6e38ed64bf6a1f010000000000000000831061232a577a184f03e93ff9f4daa797ed6e38ed64bf6a1f01000000000000000083816123205761231f613764565b5b0492506040810190505b6d04ee2d6d415b85acef81000000008310612367576d04ee2d6d415b85acef8100000000838161235d5761235c613764565b5b0492506020810190505b662386f26fc10000831061239657662386f26fc10000838161238c5761238b613764565b5b0492506010810190505b6305f5e10083106123bf576305f5e10083816123b5576123b4613764565b5b0492506008810190505b61271083106123e45761271083816123da576123d9613764565b5b0492506004810190505b6064831061240757606483816123fd576123fc613764565b5b0492506002810190505b600a8310612416576001810190505b80915050919050565b60007f01ffc9a7000000000000000000000000000000000000000000000000000000007bffffffffffffffffffffffffffffffffffffffffffffffffffffffff1916827bffffffffffffffffffffffffffffffffffffffffffffffffffffffff1916149050919050565b60405180604001604052806002905b6124a06124b6565b8152602001906001900390816124985790505090565b6040518060600160405280600390602082028036833780820191505090505090565b6000604051905090565b600080fd5b600080fd5b60007fffffffff0000000000000000000000000000000000000000000000000000000082169050919050565b612521816124ec565b811461252c57600080fd5b50565b60008135905061253e81612518565b92915050565b60006020828403121561255a576125596124e2565b5b60006125688482850161252f565b91505092915050565b60008115159050919050565b61258681612571565b82525050565b60006020820190506125a1600083018461257d565b92915050565b600081519050919050565b600082825260208201905092915050565b60005b838110156125e15780820151818401526020810190506125c6565b60008484015250505050565b6000601f19601f8301169050919050565b6000612609826125a7565b61261381856125b2565b93506126238185602086016125c3565b61262c816125ed565b840191505092915050565b6000602082019050818103600083015261265181846125fe565b905092915050565b6000819050919050565b61266c81612659565b811461267757600080fd5b50565b60008135905061268981612663565b92915050565b6000602082840312156126a5576126a46124e2565b5b60006126b38482850161267a565b91505092915050565b600073ffffffffffffffffffffffffffffffffffffffff82169050919050565b60006126e7826126bc565b9050919050565b6126f7816126dc565b82525050565b600060208201905061271260008301846126ee565b92915050565b612721816126dc565b811461272c57600080fd5b50565b60008135905061273e81612718565b92915050565b6000806040838503121561275b5761275a6124e2565b5b60006127698582860161272f565b925050602061277a8582860161267a565b9150509250929050565b600060029050919050565b600081905092915050565b6000819050919050565b600060039050919050565b600081905092915050565b6000819050919050565b600060ff82169050919050565b6127da816127c4565b82525050565b60006127ec83836127d1565b60208301905092915050565b6000602082019050919050565b61280e816127a4565b61281881846127af565b9250612823826127ba565b8060005b8381101561285457815161283b87826127e0565b9650612846836127f8565b925050600181019050612827565b505050505050565b60006128688383612805565b60608301905092915050565b6000602082019050919050565b61288a81612784565b612894818461278f565b925061289f8261279a565b8060005b838110156128d05781516128b7878261285c565b96506128c283612874565b9250506001810190506128a3565b505050505050565b600060c0820190506128ed6000830184612881565b92915050565b6128fc81612659565b82525050565b600060208201905061291760008301846128f3565b92915050565b600080600060608486031215612936576129356124e2565b5b60006129448682870161272f565b93505060206129558682870161272f565b92505060406129668682870161267a565b9150509250925092565b600060208284031215612986576129856124e2565b5b60006129948482850161272f565b91505092915050565b6129a681612571565b81146129b157600080fd5b50565b6000813590506129c38161299d565b92915050565b600080604083850312156129e0576129df6124e2565b5b60006129ee8582860161272f565b92505060206129ff858286016129b4565b9150509250929050565b600080fd5b600080fd5b7f4e487b7100000000000000000000000000000000000000000000000000000000600052604160045260246000fd5b612a4b826125ed565b810181811067ffffffffffffffff82111715612a6a57612a69612a13565b5b80604052505050565b6000612a7d6124d8565b9050612a898282612a42565b919050565b600067ffffffffffffffff821115612aa957612aa8612a13565b5b612ab2826125ed565b9050602081019050919050565b82818337600083830152505050565b6000612ae1612adc84612a8e565b612a73565b905082815260208101848484011115612afd57612afc612a0e565b5b612b08848285612abf565b509392505050565b600082601f830112612b2557612b24612a09565b5b8135612b35848260208601612ace565b91505092915050565b60008060008060808587031215612b5857612b576124e2565b5b6000612b668782880161272f565b9450506020612b778782880161272f565b9350506040612b888782880161267a565b925050606085013567ffffffffffffffff811115612ba957612ba86124e7565b5b612bb587828801612b10565b91505092959194509250565b60008060408385031215612bd857612bd76124e2565b5b6000612be68582860161272f565b9250506020612bf78582860161272f565b9150509250929050565b7f4e487b7100000000000000000000000000000000000000000000000000000000600052602260045260246000fd5b60006002820490506001821680612c4857607f821691505b602082108103612c5b57612c5a612c01565b5b50919050565b7f4552433732313a20617070726f76616c20746f2063757272656e74206f776e6560008201527f7200000000000000000000000000000000000000000000000000000000000000602082015250565b6000612cbd6021836125b2565b9150612cc882612c61565b604082019050919050565b60006020820190508181036000830152612cec81612cb0565b9050919050565b7f4552433732313a20617070726f76652063616c6c6572206973206e6f7420746f60008201527f6b656e206f776e6572206f7220617070726f76656420666f7220616c6c000000602082015250565b6000612d4f603d836125b2565b9150612d5a82612cf3565b604082019050919050565b60006020820190508181036000830152612d7e81612d42565b9050919050565b7f746f6b656e4964206f7574206f662072616e6765000000000000000000000000600082015250565b6000612dbb6014836125b2565b9150612dc682612d85565b602082019050919050565b60006020820190508181036000830152612dea81612dae565b9050919050565b60008160601b9050919050565b6000612e0982612df1565b9050919050565b6000612e1b82612dfe565b9050919050565b612e33612e2e826126dc565b612e10565b82525050565b6000819050919050565b612e54612e4f82612659565b612e39565b82525050565b6000612e668285612e22565b601482019150612e768284612e43565b6020820191508190509392505050565b600081519050919050565b600081905092915050565b6000612ea782612e86565b612eb18185612e91565b9350612ec18185602086016125c3565b80840191505092915050565b6000612ed98284612e9c565b915081905092915050565b6000819050919050565b612ef781612ee4565b8114612f0257600080fd5b50565b600081519050612f1481612eee565b92915050565b600060208284031215612f3057612f2f6124e2565b5b6000612f3e84828501612f05565b91505092915050565b7f4e487b7100000000000000000000000000000000000000000000000000000000600052601160045260246000fd5b6000612f8182612659565b9150612f8c83612659565b9250828201905080821115612fa457612fa3612f47565b5b92915050565b7f4552433732313a2063616c6c6572206973206e6f7420746f6b656e206f776e6560008201527f72206f7220617070726f76656400000000000000000000000000000000000000602082015250565b6000613006602d836125b2565b915061301182612faa565b604082019050919050565b6000602082019050818103600083015261303581612ff9565b9050919050565b7f455243373231456e756d657261626c653a206f776e657220696e646578206f7560008201527f74206f6620626f756e6473000000000000000000000000000000000000000000602082015250565b6000613098602b836125b2565b91506130a38261303c565b604082019050919050565b600060208201905081810360008301526130c78161308b565b9050919050565b7f455243373231456e756d657261626c653a20676c6f62616c20696e646578206f60008201527f7574206f6620626f756e64730000000000000000000000000000000000000000602082015250565b600061312a602c836125b2565b9150613135826130ce565b604082019050919050565b600060208201905081810360008301526131598161311d565b9050919050565b7f4e487b7100000000000000000000000000000000000000000000000000000000600052603260045260246000fd5b7f4552433732313a20696e76616c696420746f6b656e2049440000000000000000600082015250565b60006131c56018836125b2565b91506131d08261318f565b602082019050919050565b600060208201905081810360008301526131f4816131b8565b9050919050565b7f4552433732313a2061646472657373207a65726f206973206e6f74206120766160008201527f6c6964206f776e65720000000000000000000000000000000000000000000000602082015250565b60006132576029836125b2565b9150613262826131fb565b604082019050919050565b600060208201905081810360008301526132868161324a565b9050919050565b600081905092915050565b60006132a3826125a7565b6132ad818561328d565b93506132bd8185602086016125c3565b80840191505092915050565b60006132d58285613298565b91506132e18284613298565b91508190509392505050565b7f4f776e61626c653a206e6577206f776e657220697320746865207a65726f206160008201527f6464726573730000000000000000000000000000000000000000000000000000602082015250565b60006133496026836125b2565b9150613354826132ed565b604082019050919050565b600060208201905081810360008301526133788161333c565b9050919050565b7f455243373231456e756d657261626c653a20636f6e736563757469766520747260008201527f616e7366657273206e6f7420737570706f727465640000000000000000000000602082015250565b60006133db6035836125b2565b91506133e68261337f565b604082019050919050565b6000602082019050818103600083015261340a816133ce565b9050919050565b600061341c82612659565b915061342783612659565b925082820390508181111561343f5761343e612f47565b5b92915050565b6000819050919050565b600061345a82613445565b915061346583613445565b925082820390508181126000841216828213600085121516171561348c5761348b612f47565b5b92915050565b600061349d82613445565b91506134a883613445565b9250828201905082811215600083121683821260008412151617156134d0576134cf612f47565b5b92915050565b7f4552433732313a207472616e736665722066726f6d20696e636f72726563742060008201527f6f776e6572000000000000000000000000000000000000000000000000000000602082015250565b60006135326025836125b2565b915061353d826134d6565b604082019050919050565b6000602082019050818103600083015261356181613525565b9050919050565b7f4552433732313a207472616e7366657220746f20746865207a65726f2061646460008201527f7265737300000000000000000000000000000000000000000000000000000000602082015250565b60006135c46024836125b2565b91506135cf82613568565b604082019050919050565b600060208201905081810360008301526135f3816135b7565b9050919050565b7f4f776e61626c653a2063616c6c6572206973206e6f7420746865206f776e6572600082015250565b60006136306020836125b2565b915061363b826135fa565b602082019050919050565b6000602082019050818103600083015261365f81613623565b9050919050565b7f4552433732313a20617070726f766520746f2063616c6c657200000000000000600082015250565b600061369c6019836125b2565b91506136a782613666565b602082019050919050565b600060208201905081810360008301526136cb8161368f565b9050919050565b7f4552433732313a207472616e7366657220746f206e6f6e20455243373231526560008201527f63656976657220696d706c656d656e7465720000000000000000000000000000602082015250565b600061372e6032836125b2565b9150613739826136d2565b604082019050919050565b6000602082019050818103600083015261375d81613721565b9050919050565b7f4e487b7100000000000000000000000000000000000000000000000000000000600052601260045260246000fd5b7f4e487b7100000000000000000000000000000000000000000000000000000000600052603160045260246000fd5b60006137cd82613445565b91507f800000000000000000000000000000000000000000000000000000000000000082036137ff576137fe612f47565b5b816000039050919050565b7f5061757361626c653a206e6f7420706175736564000000000000000000000000600082015250565b60006138406014836125b2565b915061384b8261380a565b602082019050919050565b6000602082019050818103600083015261386f81613833565b9050919050565b7f5061757361626c653a2070617573656400000000000000000000000000000000600082015250565b60006138ac6010836125b2565b91506138b782613876565b602082019050919050565b600060208201905081810360008301526138db8161389f565b9050919050565b600082825260208201905092915050565b60006138fe82612e86565b61390881856138e2565b93506139188185602086016125c3565b613921816125ed565b840191505092915050565b600060808201905061394160008301876126ee565b61394e60208301866126ee565b61395b60408301856128f3565b818103606083015261396d81846138f3565b905095945050505050565b60008151905061398781612518565b92915050565b6000602082840312156139a3576139a26124e2565b5b60006139b184828501613978565b9150509291505056fea2646970667358221220d498231a6d096d2e69efde674beaea905cce65bc74bc4736bc8f7bf007c2fffa64736f6c63430008110033",
  "immutableReferences": {},
  "source": "// SPDX-License-Identifier: GPL-3.0-or-later\npragma solidity ^0.8.9;\n\nimport \"@openzeppelin/contracts/token/ERC721/ERC721.sol\";\nimport \"@openzeppelin/contracts/token/ERC721/extensions/ERC721Enumerable.sol\";\nimport \"@openzeppelin/contracts/security/Pausable.sol\";\nimport \"@openzeppelin/contracts/access/Ownable.sol\";\n\n/// @custom:security-contact rhea@myers.studio\ncontract FaceCoin is ERC721, ERC721Enumerable, Pausable, Ownable {\n    uint256 constant public NUM_TOKENS = 24;\n    int256 constant internal MIN_CONTRAST = 32;\n\n    constructor() ERC721(\"FaceCoin\", \"FAC\") {\n        for (uint256 i = 1; i <= NUM_TOKENS; i++) {\n            _safeMint(msg.sender, i);\n        }\n    }\n\n    function pause() public onlyOwner {\n        _pause();\n    }\n\n    function unpause() public onlyOwner {\n        _unpause();\n    }\n\n    function _beforeTokenTransfer(address from, address to, uint256 tokenId, uint256 batchSize)\n        internal\n        whenNotPaused\n        override(ERC721, ERC721Enumerable)\n    {\n        super._beforeTokenTransfer(from, to, tokenId, batchSize);\n    }\n\n    // The following functions are overrides required by Solidity.\n\n    function supportsInterface(bytes4 interfaceId)\n        public\n        view\n        override(ERC721, ERC721Enumerable)\n        returns (bool)\n    {\n        return super.supportsInterface(interfaceId);\n    }\n\n    /*\n      Extract 24-bit forground and background colours from the hash of\n      the owner's address and the token id.\n      This will usually be the first and second 3-byte runs of the hash\n      bytes32, but if they are not contrasty enough we try successive 3-byte\n      runs for the foreground colour until we give up and default it to\n      black.\n     */\n\n    function tokenPalette(uint256 tokenId)\n        public\n        view\n        returns (uint8[3][2] memory)\n    {\n        require(\n            tokenId > 0 && tokenId <= NUM_TOKENS,\n            \"tokenId out of range\"\n        );\n        bytes32 hash = sha256(abi.encodePacked(ownerOf(tokenId), tokenId));\n        uint8[3] memory background;\n        uint8[3] memory foreground;\n        extractRgb(hash, 0, background);\n        // Ethereum addresses are 20 bytes.\n        for (uint256 i = 15; i < 32; i += 3) {\n            extractRgb(hash, 1, foreground);\n            if (contrastRgbs(background, foreground) <= MIN_CONTRAST) {\n                break;\n            }\n        }\n        return [background, foreground];\n    }\n\n    /*\n      Extract 3 successive bytes from the hash and insert them into the bytes\n      of a uint24 in order.\n     */\n\n    function extractRgb(bytes32 hash, uint256 index, uint8[3] memory rgb)\n        internal\n        pure\n    {\n        rgb[0] = uint8(hash[index]);\n        rgb[1] = uint8(hash[index + 1]);\n        rgb[2] = uint8(hash[index + 2]);\n    }\n\n    /*\n      Get the difference (not distance) between two 24-bit rgb values\n      encoded as uint24s.\n    */\n\n    function contrastRgbs(uint8[3] memory ua, uint8[3] memory ub)\n        internal\n        pure\n        returns (int256)\n    {\n        return\n            abs((int256(uint256(ua[0]))) - (int256(uint256(ub[0]))))\n            +  abs((int256(uint256(ua[1]))) - (int256(uint256(ub[1]))))\n            +  abs((int256(uint256(ua[2]))) - (int256(uint256(ub[2]))));\n    }\n\n    /*\n      Solidity doesn't have this.\n    */\n    \n    function abs(int256 x)\n        internal\n        pure\n        returns (int256)\n    {\n        return x >= 0 ? x : -x;\n    }\n}\n",
  "sourcePath": "/home/rhea/projects/facecoin-edition/contracts/Facecoin.sol",
  "compiler": {
    "name": "solc",
    "version": "0.8.17+commit.8df45f5f.Emscripten.clang"
  },
  "schemaVersion": "3.4.11",
  "updatedAt": "2022-12-28T20:34:46.604Z",
  "networkType": "ethereum",
  "devdoc": {
    "custom:security-contact": "rhea@myers.studio",
    "kind": "dev",
    "methods": {
      "approve(address,uint256)": {
        "details": "See {IERC721-approve}."
      },
      "balanceOf(address)": {
        "details": "See {IERC721-balanceOf}."
      },
      "getApproved(uint256)": {
        "details": "See {IERC721-getApproved}."
      },
      "isApprovedForAll(address,address)": {
        "details": "See {IERC721-isApprovedForAll}."
      },
      "name()": {
        "details": "See {IERC721Metadata-name}."
      },
      "owner()": {
        "details": "Returns the address of the current owner."
      },
      "ownerOf(uint256)": {
        "details": "See {IERC721-ownerOf}."
      },
      "paused()": {
        "details": "Returns true if the contract is paused, and false otherwise."
      },
      "renounceOwnership()": {
        "details": "Leaves the contract without owner. It will not be possible to call `onlyOwner` functions anymore. Can only be called by the current owner. NOTE: Renouncing ownership will leave the contract without an owner, thereby removing any functionality that is only available to the owner."
      },
      "safeTransferFrom(address,address,uint256)": {
        "details": "See {IERC721-safeTransferFrom}."
      },
      "safeTransferFrom(address,address,uint256,bytes)": {
        "details": "See {IERC721-safeTransferFrom}."
      },
      "setApprovalForAll(address,bool)": {
        "details": "See {IERC721-setApprovalForAll}."
      },
      "symbol()": {
        "details": "See {IERC721Metadata-symbol}."
      },
      "tokenByIndex(uint256)": {
        "details": "See {IERC721Enumerable-tokenByIndex}."
      },
      "tokenOfOwnerByIndex(address,uint256)": {
        "details": "See {IERC721Enumerable-tokenOfOwnerByIndex}."
      },
      "tokenURI(uint256)": {
        "details": "See {IERC721Metadata-tokenURI}."
      },
      "totalSupply()": {
        "details": "See {IERC721Enumerable-totalSupply}."
      },
      "transferFrom(address,address,uint256)": {
        "details": "See {IERC721-transferFrom}."
      },
      "transferOwnership(address)": {
        "details": "Transfers ownership of the contract to a new account (`newOwner`). Can only be called by the current owner."
      }
    },
    "version": 1
  },
  "userdoc": {
    "kind": "user",
    "methods": {},
    "version": 1
  }
}