{
  "contractName": "Facecoin",
  "abi": [
    {
      "inputs": [],
      "stateMutability": "nonpayable",
      "type": "constructor"
    },
    {
      "anonymous": false,
      "inputs": [
        {
          "indexed": true,
          "internalType": "address",
          "name": "owner",
          "type": "address"
        },
        {
          "indexed": true,
          "internalType": "address",
          "name": "approved",
          "type": "address"
        },
        {
          "indexed": true,
          "internalType": "uint256",
          "name": "tokenId",
          "type": "uint256"
        }
      ],
      "name": "Approval",
      "type": "event"
    },
    {
      "anonymous": false,
      "inputs": [
        {
          "indexed": true,
          "internalType": "address",
          "name": "owner",
          "type": "address"
        },
        {
          "indexed": true,
          "internalType": "address",
          "name": "operator",
          "type": "address"
        },
        {
          "indexed": false,
          "internalType": "bool",
          "name": "approved",
          "type": "bool"
        }
      ],
      "name": "ApprovalForAll",
      "type": "event"
    },
    {
      "anonymous": false,
      "inputs": [
        {
          "indexed": true,
          "internalType": "address",
          "name": "previousOwner",
          "type": "address"
        },
        {
          "indexed": true,
          "internalType": "address",
          "name": "newOwner",
          "type": "address"
        }
      ],
      "name": "OwnershipTransferred",
      "type": "event"
    },
    {
      "anonymous": false,
      "inputs": [
        {
          "indexed": false,
          "internalType": "address",
          "name": "account",
          "type": "address"
        }
      ],
      "name": "Paused",
      "type": "event"
    },
    {
      "anonymous": false,
      "inputs": [
        {
          "indexed": true,
          "internalType": "address",
          "name": "from",
          "type": "address"
        },
        {
          "indexed": true,
          "internalType": "address",
          "name": "to",
          "type": "address"
        },
        {
          "indexed": true,
          "internalType": "uint256",
          "name": "tokenId",
          "type": "uint256"
        }
      ],
      "name": "Transfer",
      "type": "event"
    },
    {
      "anonymous": false,
      "inputs": [
        {
          "indexed": false,
          "internalType": "address",
          "name": "account",
          "type": "address"
        }
      ],
      "name": "Unpaused",
      "type": "event"
    },
    {
      "inputs": [],
      "name": "NUM_TOKENS",
      "outputs": [
        {
          "internalType": "uint256",
          "name": "",
          "type": "uint256"
        }
      ],
      "stateMutability": "view",
      "type": "function",
      "constant": true
    },
    {
      "inputs": [
        {
          "internalType": "address",
          "name": "to",
          "type": "address"
        },
        {
          "internalType": "uint256",
          "name": "tokenId",
          "type": "uint256"
        }
      ],
      "name": "approve",
      "outputs": [],
      "stateMutability": "nonpayable",
      "type": "function"
    },
    {
      "inputs": [
        {
          "internalType": "address",
          "name": "owner",
          "type": "address"
        }
      ],
      "name": "balanceOf",
      "outputs": [
        {
          "internalType": "uint256",
          "name": "",
          "type": "uint256"
        }
      ],
      "stateMutability": "view",
      "type": "function",
      "constant": true
    },
    {
      "inputs": [
        {
          "internalType": "uint256",
          "name": "tokenId",
          "type": "uint256"
        }
      ],
      "name": "getApproved",
      "outputs": [
        {
          "internalType": "address",
          "name": "",
          "type": "address"
        }
      ],
      "stateMutability": "view",
      "type": "function",
      "constant": true
    },
    {
      "inputs": [
        {
          "internalType": "address",
          "name": "owner",
          "type": "address"
        },
        {
          "internalType": "address",
          "name": "operator",
          "type": "address"
        }
      ],
      "name": "isApprovedForAll",
      "outputs": [
        {
          "internalType": "bool",
          "name": "",
          "type": "bool"
        }
      ],
      "stateMutability": "view",
      "type": "function",
      "constant": true
    },
    {
      "inputs": [],
      "name": "name",
      "outputs": [
        {
          "internalType": "string",
          "name": "",
          "type": "string"
        }
      ],
      "stateMutability": "view",
      "type": "function",
      "constant": true
    },
    {
      "inputs": [],
      "name": "owner",
      "outputs": [
        {
          "internalType": "address",
          "name": "",
          "type": "address"
        }
      ],
      "stateMutability": "view",
      "type": "function",
      "constant": true
    },
    {
      "inputs": [
        {
          "internalType": "uint256",
          "name": "tokenId",
          "type": "uint256"
        }
      ],
      "name": "ownerOf",
      "outputs": [
        {
          "internalType": "address",
          "name": "",
          "type": "address"
        }
      ],
      "stateMutability": "view",
      "type": "function",
      "constant": true
    },
    {
      "inputs": [],
      "name": "paused",
      "outputs": [
        {
          "internalType": "bool",
          "name": "",
          "type": "bool"
        }
      ],
      "stateMutability": "view",
      "type": "function",
      "constant": true
    },
    {
      "inputs": [],
      "name": "renounceOwnership",
      "outputs": [],
      "stateMutability": "nonpayable",
      "type": "function"
    },
    {
      "inputs": [
        {
          "internalType": "address",
          "name": "from",
          "type": "address"
        },
        {
          "internalType": "address",
          "name": "to",
          "type": "address"
        },
        {
          "internalType": "uint256",
          "name": "tokenId",
          "type": "uint256"
        }
      ],
      "name": "safeTransferFrom",
      "outputs": [],
      "stateMutability": "nonpayable",
      "type": "function"
    },
    {
      "inputs": [
        {
          "internalType": "address",
          "name": "from",
          "type": "address"
        },
        {
          "internalType": "address",
          "name": "to",
          "type": "address"
        },
        {
          "internalType": "uint256",
          "name": "tokenId",
          "type": "uint256"
        },
        {
          "internalType": "bytes",
          "name": "data",
          "type": "bytes"
        }
      ],
      "name": "safeTransferFrom",
      "outputs": [],
      "stateMutability": "nonpayable",
      "type": "function"
    },
    {
      "inputs": [
        {
          "internalType": "address",
          "name": "operator",
          "type": "address"
        },
        {
          "internalType": "bool",
          "name": "approved",
          "type": "bool"
        }
      ],
      "name": "setApprovalForAll",
      "outputs": [],
      "stateMutability": "nonpayable",
      "type": "function"
    },
    {
      "inputs": [],
      "name": "symbol",
      "outputs": [
        {
          "internalType": "string",
          "name": "",
          "type": "string"
        }
      ],
      "stateMutability": "view",
      "type": "function",
      "constant": true
    },
    {
      "inputs": [
        {
          "internalType": "uint256",
          "name": "index",
          "type": "uint256"
        }
      ],
      "name": "tokenByIndex",
      "outputs": [
        {
          "internalType": "uint256",
          "name": "",
          "type": "uint256"
        }
      ],
      "stateMutability": "view",
      "type": "function",
      "constant": true
    },
    {
      "inputs": [
        {
          "internalType": "address",
          "name": "owner",
          "type": "address"
        },
        {
          "internalType": "uint256",
          "name": "index",
          "type": "uint256"
        }
      ],
      "name": "tokenOfOwnerByIndex",
      "outputs": [
        {
          "internalType": "uint256",
          "name": "",
          "type": "uint256"
        }
      ],
      "stateMutability": "view",
      "type": "function",
      "constant": true
    },
    {
      "inputs": [
        {
          "internalType": "uint256",
          "name": "tokenId",
          "type": "uint256"
        }
      ],
      "name": "tokenURI",
      "outputs": [
        {
          "internalType": "string",
          "name": "",
          "type": "string"
        }
      ],
      "stateMutability": "view",
      "type": "function",
      "constant": true
    },
    {
      "inputs": [],
      "name": "totalSupply",
      "outputs": [
        {
          "internalType": "uint256",
          "name": "",
          "type": "uint256"
        }
      ],
      "stateMutability": "view",
      "type": "function",
      "constant": true
    },
    {
      "inputs": [
        {
          "internalType": "address",
          "name": "from",
          "type": "address"
        },
        {
          "internalType": "address",
          "name": "to",
          "type": "address"
        },
        {
          "internalType": "uint256",
          "name": "tokenId",
          "type": "uint256"
        }
      ],
      "name": "transferFrom",
      "outputs": [],
      "stateMutability": "nonpayable",
      "type": "function"
    },
    {
      "inputs": [
        {
          "internalType": "address",
          "name": "newOwner",
          "type": "address"
        }
      ],
      "name": "transferOwnership",
      "outputs": [],
      "stateMutability": "nonpayable",
      "type": "function"
    },
    {
      "inputs": [],
      "name": "pause",
      "outputs": [],
      "stateMutability": "nonpayable",
      "type": "function"
    },
    {
      "inputs": [],
      "name": "unpause",
      "outputs": [],
      "stateMutability": "nonpayable",
      "type": "function"
    },
    {
      "inputs": [
        {
          "internalType": "string",
          "name": "newUri",
          "type": "string"
        }
      ],
      "name": "setBaseUri",
      "outputs": [],
      "stateMutability": "nonpayable",
      "type": "function"
    },
    {
      "inputs": [
        {
          "internalType": "bytes4",
          "name": "interfaceId",
          "type": "bytes4"
        }
      ],
      "name": "supportsInterface",
      "outputs": [
        {
          "internalType": "bool",
          "name": "",
          "type": "bool"
        }
      ],
      "stateMutability": "view",
      "type": "function",
      "constant": true
    },
    {
      "inputs": [
        {
          "internalType": "uint256",
          "name": "tokenId",
          "type": "uint256"
        }
      ],
      "name": "tokenPalette",
      "outputs": [
        {
          "internalType": "uint8[3][2]",
          "name": "",
          "type": "uint8[3][2]"
        }
      ],
      "stateMutability": "view",
      "type": "function",
      "constant": true
    }
  ],
  "bytecode": "0x60e0604052603660808181529062002b9860a039600b9062000022908262000a2c565b503480156200003057600080fd5b50604051806040016040528060088152602001672330b1b2b1b7b4b760c11b8152506040518060400160405280600381526020016246414360e81b81525081600090816200007f919062000a2c565b5060016200008e828262000a2c565b5050600a805460ff1916905550620000a633620000da565b60015b60188111620000d357620000be338262000134565b80620000ca8162000b0e565b915050620000a9565b5062000c2e565b600a80546001600160a01b03838116610100818102610100600160a81b031985161790945560405193909204169182907f8be0079c531659141344cd1fd0a4f28419497f9722a3daafe3b4186f6b6457e090600090a35050565b620001568282604051806020016040528060008152506200015a60201b60201c565b5050565b620001668383620001d6565b62000175600084848462000377565b620001d15760405162461bcd60e51b8152602060048201526032602482015260008051602062002b7883398151915260448201527131b2b4bb32b91034b6b83632b6b2b73a32b960711b60648201526084015b60405180910390fd5b505050565b6001600160a01b0382166200022e5760405162461bcd60e51b815260206004820181905260248201527f4552433732313a206d696e7420746f20746865207a65726f20616464726573736044820152606401620001c8565b6000818152600260205260409020546001600160a01b031615620002955760405162461bcd60e51b815260206004820152601c60248201527f4552433732313a20746f6b656e20616c7265616479206d696e746564000000006044820152606401620001c8565b620002a5600083836001620004d3565b6000818152600260205260409020546001600160a01b0316156200030c5760405162461bcd60e51b815260206004820152601c60248201527f4552433732313a20746f6b656e20616c7265616479206d696e746564000000006044820152606401620001c8565b6001600160a01b038216600081815260036020908152604080832080546001019055848352600290915280822080546001600160a01b0319168417905551839291907fddf252ad1be2c89b69c2b068fc378daa952ba7f163c4a11628f55a4df523b3ef908290a45050565b600062000398846001600160a01b0316620004fc60201b62000aa11760201c565b15620004c757604051630a85bd0160e11b81526001600160a01b0385169063150b7a0290620003d290339089908890889060040162000b2a565b6020604051808303816000875af192505050801562000410575060408051601f3d908101601f191682019092526200040d9181019062000b9d565b60015b620004ac573d80801562000441576040519150601f19603f3d011682016040523d82523d6000602084013e62000446565b606091505b508051600003620004a45760405162461bcd60e51b8152602060048201526032602482015260008051602062002b7883398151915260448201527131b2b4bb32b91034b6b83632b6b2b73a32b960711b6064820152608401620001c8565b805181602001fd5b6001600160e01b031916630a85bd0160e11b149050620004cb565b5060015b949350505050565b620004dd6200050b565b620004f6848484846200055560201b62000ab01760201c565b50505050565b6001600160a01b03163b151590565b600a5460ff1615620005535760405162461bcd60e51b815260206004820152601060248201526f14185d5cd8589b194e881c185d5cd95960821b6044820152606401620001c8565b565b6200056e84848484620006b960201b62000bf01760201c565b6001811115620005e75760405162461bcd60e51b815260206004820152603560248201527f455243373231456e756d657261626c653a20636f6e736563757469766520747260448201527f616e7366657273206e6f7420737570706f7274656400000000000000000000006064820152608401620001c8565b816001600160a01b03851662000646576200064081600880546000838152600960205260408120829055600182018355919091527ff3f7a9fe364faab93b216da50a3214154f22a0a2b415b23a84c8169e8b636ee30155565b6200066c565b836001600160a01b0316856001600160a01b0316146200066c576200066c858262000748565b6001600160a01b0384166200068c576200068681620007f5565b620006b2565b846001600160a01b0316846001600160a01b031614620006b257620006b28482620008af565b5050505050565b6001811115620004f6576001600160a01b0384161562000703576001600160a01b03841660009081526003602052604081208054839290620006fd90849062000bd0565b90915550505b6001600160a01b03831615620004f6576001600160a01b038316600090815260036020526040812080548392906200073d90849062000bec565b909155505050505050565b6000600162000762846200090060201b620008ae1760201c565b6200076e919062000bd0565b600083815260076020526040902054909150808214620007c2576001600160a01b03841660009081526006602090815260408083208584528252808320548484528184208190558352600790915290208190555b5060009182526007602090815260408084208490556001600160a01b039094168352600681528383209183525290812055565b600854600090620008099060019062000bd0565b6000838152600960205260408120546008805493945090928490811062000834576200083462000c02565b90600052602060002001549050806008838154811062000858576200085862000c02565b600091825260208083209091019290925582815260099091526040808220849055858252812055600880548062000893576200089362000c18565b6001900381819060005260206000200160009055905550505050565b6000620008c7836200090060201b620008ae1760201c565b6001600160a01b039093166000908152600660209081526040808320868452825280832085905593825260079052919091209190915550565b60006001600160a01b0382166200096c5760405162461bcd60e51b815260206004820152602960248201527f4552433732313a2061646472657373207a65726f206973206e6f7420612076616044820152683634b21037bbb732b960b91b6064820152608401620001c8565b506001600160a01b031660009081526003602052604090205490565b634e487b7160e01b600052604160045260246000fd5b600181811c90821680620009b357607f821691505b602082108103620009d457634e487b7160e01b600052602260045260246000fd5b50919050565b601f821115620001d157600081815260208120601f850160051c8101602086101562000a035750805b601f850160051c820191505b8181101562000a245782815560010162000a0f565b505050505050565b81516001600160401b0381111562000a485762000a4862000988565b62000a608162000a5984546200099e565b84620009da565b602080601f83116001811462000a98576000841562000a7f5750858301515b600019600386901b1c1916600185901b17855562000a24565b600085815260208120601f198616915b8281101562000ac95788860151825594840194600190910190840162000aa8565b508582101562000ae85787850151600019600388901b60f8161c191681555b5050505050600190811b01905550565b634e487b7160e01b600052601160045260246000fd5b60006001820162000b235762000b2362000af8565b5060010190565b600060018060a01b038087168352602081871681850152856040850152608060608501528451915081608085015260005b8281101562000b795785810182015185820160a00152810162000b5b565b5050600060a0828501015260a0601f19601f83011684010191505095945050505050565b60006020828403121562000bb057600080fd5b81516001600160e01b03198116811462000bc957600080fd5b9392505050565b8181038181111562000be65762000be662000af8565b92915050565b8082018082111562000be65762000be662000af8565b634e487b7160e01b600052603260045260246000fd5b634e487b7160e01b600052603160045260246000fd5b611f3a8062000c3e6000396000f3fe608060405234801561001057600080fd5b50600436106101735760003560e01c80635c975abb116100de57806395d89b4111610097578063b88d4fde11610071578063b88d4fde14610308578063c87b56dd1461031b578063e985e9c51461032e578063f2fde38b1461036a57600080fd5b806395d89b41146102da578063a0bcfc7f146102e2578063a22cb465146102f557600080fd5b80635c975abb146102835780636352211e1461028e57806370a08231146102a1578063715018a6146102b45780638456cb59146102bc5780638da5cb5b146102c457600080fd5b806323b872dd1161013057806323b872dd146102275780632f745c591461023a5780633f4ba83a1461024d5780634149db481461025557806342842e0e1461025d5780634f6ccce71461027057600080fd5b806301ffc9a71461017857806306fdde03146101a0578063081812fc146101b5578063095ea7b3146101e057806312a1d374146101f557806318160ddd14610215575b600080fd5b61018b6101863660046117e1565b61037d565b60405190151581526020015b60405180910390f35b6101a861038e565b604051610197919061184e565b6101c86101c3366004611861565b610420565b6040516001600160a01b039091168152602001610197565b6101f36101ee366004611896565b610447565b005b610208610203366004611861565b610561565b60405161019791906118c0565b6008545b604051908152602001610197565b6101f361023536600461191d565b6106c7565b610219610248366004611896565b6106f8565b6101f361078e565b610219601881565b6101f361026b36600461191d565b6107a0565b61021961027e366004611861565b6107bb565b600a5460ff1661018b565b6101c861029c366004611861565b61084e565b6102196102af366004611959565b6108ae565b6101f3610934565b6101f3610946565b600a5461010090046001600160a01b03166101c8565b6101a8610956565b6101f36102f0366004611974565b610965565b6101f36103033660046119e6565b61097a565b6101f3610316366004611a38565b610989565b6101a8610329366004611861565b6109c1565b61018b61033c366004611b14565b6001600160a01b03918216600090815260056020908152604080832093909416825291909152205460ff1690565b6101f3610378366004611959565b610a28565b600061038882610c78565b92915050565b60606000805461039d90611b47565b80601f01602080910402602001604051908101604052809291908181526020018280546103c990611b47565b80156104165780601f106103eb57610100808354040283529160200191610416565b820191906000526020600020905b8154815290600101906020018083116103f957829003601f168201915b5050505050905090565b600061042b82610c9d565b506000908152600460205260409020546001600160a01b031690565b60006104528261084e565b9050806001600160a01b0316836001600160a01b0316036104c45760405162461bcd60e51b815260206004820152602160248201527f4552433732313a20617070726f76616c20746f2063757272656e74206f776e656044820152603960f91b60648201526084015b60405180910390fd5b336001600160a01b03821614806104e057506104e0813361033c565b6105525760405162461bcd60e51b815260206004820152603d60248201527f4552433732313a20617070726f76652063616c6c6572206973206e6f7420746f60448201527f6b656e206f776e6572206f7220617070726f76656420666f7220616c6c00000060648201526084016104bb565b61055c8383610cfc565b505050565b610569611780565b60008211801561057a575060188211155b6105bd5760405162461bcd60e51b8152602060048201526014602482015273746f6b656e4964206f7574206f662072616e676560601b60448201526064016104bb565b600060026105ca8461084e565b846040516020016105f992919060609290921b6bffffffffffffffffffffffff19168252601482015260340190565b60408051601f198184030181529082905261061391611b81565b602060405180830381855afa158015610630573d6000803e3d6000fd5b5050506040513d601f19601f820116820180604052508101906106539190611b9d565b905061065d6117ad565b6106656117ad565b61067183600084610d6a565b600f5b60208110156106ad5761068984600184610d6a565b60206106958484610dc8565b13156106ad576106a6600382611bcc565b9050610674565b506040805180820190915291825260208201529392505050565b6106d13382610e2c565b6106ed5760405162461bcd60e51b81526004016104bb90611bdf565b61055c838383610eab565b6000610703836108ae565b82106107655760405162461bcd60e51b815260206004820152602b60248201527f455243373231456e756d657261626c653a206f776e657220696e646578206f7560448201526a74206f6620626f756e647360a81b60648201526084016104bb565b506001600160a01b03919091166000908152600660209081526040808320938352929052205490565b61079661101c565b61079e61107c565b565b61055c83838360405180602001604052806000815250610989565b60006107c660085490565b82106108295760405162461bcd60e51b815260206004820152602c60248201527f455243373231456e756d657261626c653a20676c6f62616c20696e646578206f60448201526b7574206f6620626f756e647360a01b60648201526084016104bb565b6008828154811061083c5761083c611c2c565b90600052602060002001549050919050565b6000818152600260205260408120546001600160a01b0316806103885760405162461bcd60e51b8152602060048201526018602482015277115490cdcc8c4e881a5b9d985b1a59081d1bdad95b88125160421b60448201526064016104bb565b60006001600160a01b0382166109185760405162461bcd60e51b815260206004820152602960248201527f4552433732313a2061646472657373207a65726f206973206e6f7420612076616044820152683634b21037bbb732b960b91b60648201526084016104bb565b506001600160a01b031660009081526003602052604090205490565b61093c61101c565b61079e60006110ce565b61094e61101c565b61079e611128565b60606001805461039d90611b47565b61096d61101c565b600b61055c828483611c90565b610985338383611165565b5050565b6109933383610e2c565b6109af5760405162461bcd60e51b81526004016104bb90611bdf565b6109bb84848484611233565b50505050565b60606109cc82610c9d565b60006109d6611266565b905060008151116109f65760405180602001604052806000815250610a21565b80610a0084611275565b604051602001610a11929190611d50565b6040516020818303038152906040525b9392505050565b610a3061101c565b6001600160a01b038116610a955760405162461bcd60e51b815260206004820152602660248201527f4f776e61626c653a206e6577206f776e657220697320746865207a65726f206160448201526564647265737360d01b60648201526084016104bb565b610a9e816110ce565b50565b6001600160a01b03163b151590565b610abc84848484610bf0565b6001811115610b2b5760405162461bcd60e51b815260206004820152603560248201527f455243373231456e756d657261626c653a20636f6e7365637574697665207472604482015274185b9cd9995c9cc81b9bdd081cdd5c1c1bdc9d1959605a1b60648201526084016104bb565b816001600160a01b038516610b8757610b8281600880546000838152600960205260408120829055600182018355919091527ff3f7a9fe364faab93b216da50a3214154f22a0a2b415b23a84c8169e8b636ee30155565b610baa565b836001600160a01b0316856001600160a01b031614610baa57610baa8582611308565b6001600160a01b038416610bc657610bc1816113a5565b610be9565b846001600160a01b0316846001600160a01b031614610be957610be98482611454565b5050505050565b60018111156109bb576001600160a01b03841615610c36576001600160a01b03841660009081526003602052604081208054839290610c30908490611d7f565b90915550505b6001600160a01b038316156109bb576001600160a01b03831660009081526003602052604081208054839290610c6d908490611bcc565b909155505050505050565b60006001600160e01b0319821663780e9d6360e01b1480610388575061038882611498565b6000818152600260205260409020546001600160a01b0316610a9e5760405162461bcd60e51b8152602060048201526018602482015277115490cdcc8c4e881a5b9d985b1a59081d1bdad95b88125160421b60448201526064016104bb565b600081815260046020526040902080546001600160a01b0319166001600160a01b0384169081179091558190610d318261084e565b6001600160a01b03167f8c5be1e5ebec7d5bd14f71427d1e84f3dd0314c0f7b2291e5b200ac8c7c3b92560405160405180910390a45050565b828260208110610d7c57610d7c611c2c565b1a815282610d8b836001611bcc565b60208110610d9b57610d9b611c2c565b1a602082015282610dad836002611bcc565b60208110610dbd57610dbd611c2c565b1a6040909101525050565b6000610df3826002602002015160ff168460025b602002015160ff16610dee9190611d92565b6114e8565b6020830151610e079060ff16856001610ddc565b8351610e189060ff16866000610ddc565b610e229190611db9565b610a219190611db9565b600080610e388361084e565b9050806001600160a01b0316846001600160a01b03161480610e7f57506001600160a01b0380821660009081526005602090815260408083209388168352929052205460ff165b80610ea35750836001600160a01b0316610e9884610420565b6001600160a01b0316145b949350505050565b826001600160a01b0316610ebe8261084e565b6001600160a01b031614610ee45760405162461bcd60e51b81526004016104bb90611de1565b6001600160a01b038216610f465760405162461bcd60e51b8152602060048201526024808201527f4552433732313a207472616e7366657220746f20746865207a65726f206164646044820152637265737360e01b60648201526084016104bb565b610f538383836001611504565b826001600160a01b0316610f668261084e565b6001600160a01b031614610f8c5760405162461bcd60e51b81526004016104bb90611de1565b600081815260046020908152604080832080546001600160a01b03199081169091556001600160a01b0387811680865260038552838620805460001901905590871680865283862080546001019055868652600290945282852080549092168417909155905184937fddf252ad1be2c89b69c2b068fc378daa952ba7f163c4a11628f55a4df523b3ef91a4505050565b600a546001600160a01b0361010090910416331461079e5760405162461bcd60e51b815260206004820181905260248201527f4f776e61626c653a2063616c6c6572206973206e6f7420746865206f776e657260448201526064016104bb565b611084611518565b600a805460ff191690557f5db9ee0a495bf2e6ff9c91a7834c1ba4fdd244a5e8aa4e537bd38aeae4b073aa335b6040516001600160a01b03909116815260200160405180910390a1565b600a80546001600160a01b03838116610100818102610100600160a81b031985161790945560405193909204169182907f8be0079c531659141344cd1fd0a4f28419497f9722a3daafe3b4186f6b6457e090600090a35050565b611130611561565b600a805460ff191660011790557f62e78cea01bee320cd4e420270b5ea74000d11b0c9f74754ebdbfc544b05a2586110b13390565b816001600160a01b0316836001600160a01b0316036111c65760405162461bcd60e51b815260206004820152601960248201527f4552433732313a20617070726f766520746f2063616c6c65720000000000000060448201526064016104bb565b6001600160a01b03838116600081815260056020908152604080832094871680845294825291829020805460ff191686151590811790915591519182527f17307eab39ab6107e8899845ad3d59bd9653f200f220920489ca2b5937696c31910160405180910390a3505050565b61123e848484610eab565b61124a848484846115a7565b6109bb5760405162461bcd60e51b81526004016104bb90611e26565b6060600b805461039d90611b47565b60606000611282836116a8565b600101905060008167ffffffffffffffff8111156112a2576112a2611a22565b6040519080825280601f01601f1916602001820160405280156112cc576020820181803683370190505b5090508181016020015b600019016f181899199a1a9b1b9c1cb0b131b232b360811b600a86061a8153600a85049450846112d657509392505050565b60006001611315846108ae565b61131f9190611d7f565b600083815260076020526040902054909150808214611372576001600160a01b03841660009081526006602090815260408083208584528252808320548484528184208190558352600790915290208190555b5060009182526007602090815260408084208490556001600160a01b039094168352600681528383209183525290812055565b6008546000906113b790600190611d7f565b600083815260096020526040812054600880549394509092849081106113df576113df611c2c565b90600052602060002001549050806008838154811061140057611400611c2c565b600091825260208083209091019290925582815260099091526040808220849055858252812055600880548061143857611438611e78565b6001900381819060005260206000200160009055905550505050565b600061145f836108ae565b6001600160a01b039093166000908152600660209081526040808320868452825280832085905593825260079052919091209190915550565b60006001600160e01b031982166380ac58cd60e01b14806114c957506001600160e01b03198216635b5e139f60e01b145b8061038857506301ffc9a760e01b6001600160e01b0319831614610388565b600080821215611500576114fb82611e8e565b610388565b5090565b61150c611561565b6109bb84848484610ab0565b600a5460ff1661079e5760405162461bcd60e51b815260206004820152601460248201527314185d5cd8589b194e881b9bdd081c185d5cd95960621b60448201526064016104bb565b600a5460ff161561079e5760405162461bcd60e51b815260206004820152601060248201526f14185d5cd8589b194e881c185d5cd95960821b60448201526064016104bb565b60006001600160a01b0384163b1561169d57604051630a85bd0160e11b81526001600160a01b0385169063150b7a02906115eb903390899088908890600401611eaa565b6020604051808303816000875af1925050508015611626575060408051601f3d908101601f1916820190925261162391810190611ee7565b60015b611683573d808015611654576040519150601f19603f3d011682016040523d82523d6000602084013e611659565b606091505b50805160000361167b5760405162461bcd60e51b81526004016104bb90611e26565b805181602001fd5b6001600160e01b031916630a85bd0160e11b149050610ea3565b506001949350505050565b60008072184f03e93ff9f4daa797ed6e38ed64bf6a1f0160401b83106116e75772184f03e93ff9f4daa797ed6e38ed64bf6a1f0160401b830492506040015b6d04ee2d6d415b85acef81000000008310611713576d04ee2d6d415b85acef8100000000830492506020015b662386f26fc10000831061173157662386f26fc10000830492506010015b6305f5e1008310611749576305f5e100830492506008015b612710831061175d57612710830492506004015b6064831061176f576064830492506002015b600a83106103885760010192915050565b60405180604001604052806002905b6117976117ad565b81526020019060019003908161178f5790505090565b60405180606001604052806003906020820280368337509192915050565b6001600160e01b031981168114610a9e57600080fd5b6000602082840312156117f357600080fd5b8135610a21816117cb565b60005b83811015611819578181015183820152602001611801565b50506000910152565b6000815180845261183a8160208601602086016117fe565b601f01601f19169290920160200192915050565b602081526000610a216020830184611822565b60006020828403121561187357600080fd5b5035919050565b80356001600160a01b038116811461189157600080fd5b919050565b600080604083850312156118a957600080fd5b6118b28361187a565b946020939093013593505050565b60c0810181836000805b600281101561191357825184835b60038110156118fa57825160ff168252602092830192909101906001016118d8565b50505060609390930192602092909201916001016118ca565b5050505092915050565b60008060006060848603121561193257600080fd5b61193b8461187a565b92506119496020850161187a565b9150604084013590509250925092565b60006020828403121561196b57600080fd5b610a218261187a565b6000806020838503121561198757600080fd5b823567ffffffffffffffff8082111561199f57600080fd5b818501915085601f8301126119b357600080fd5b8135818111156119c257600080fd5b8660208285010111156119d457600080fd5b60209290920196919550909350505050565b600080604083850312156119f957600080fd5b611a028361187a565b915060208301358015158114611a1757600080fd5b809150509250929050565b634e487b7160e01b600052604160045260246000fd5b60008060008060808587031215611a4e57600080fd5b611a578561187a565b9350611a656020860161187a565b925060408501359150606085013567ffffffffffffffff80821115611a8957600080fd5b818701915087601f830112611a9d57600080fd5b813581811115611aaf57611aaf611a22565b604051601f8201601f19908116603f01168101908382118183101715611ad757611ad7611a22565b816040528281528a6020848701011115611af057600080fd5b82602086016020830137600060208483010152809550505050505092959194509250565b60008060408385031215611b2757600080fd5b611b308361187a565b9150611b3e6020840161187a565b90509250929050565b600181811c90821680611b5b57607f821691505b602082108103611b7b57634e487b7160e01b600052602260045260246000fd5b50919050565b60008251611b938184602087016117fe565b9190910192915050565b600060208284031215611baf57600080fd5b5051919050565b634e487b7160e01b600052601160045260246000fd5b8082018082111561038857610388611bb6565b6020808252602d908201527f4552433732313a2063616c6c6572206973206e6f7420746f6b656e206f776e6560408201526c1c881bdc88185c1c1c9bdd9959609a1b606082015260800190565b634e487b7160e01b600052603260045260246000fd5b601f82111561055c57600081815260208120601f850160051c81016020861015611c695750805b601f850160051c820191505b81811015611c8857828155600101611c75565b505050505050565b67ffffffffffffffff831115611ca857611ca8611a22565b611cbc83611cb68354611b47565b83611c42565b6000601f841160018114611cf05760008515611cd85750838201355b600019600387901b1c1916600186901b178355610be9565b600083815260209020601f19861690835b82811015611d215786850135825560209485019460019092019101611d01565b5086821015611d3e5760001960f88860031b161c19848701351681555b505060018560011b0183555050505050565b60008351611d628184602088016117fe565b835190830190611d768183602088016117fe565b01949350505050565b8181038181111561038857610388611bb6565b8181036000831280158383131683831282161715611db257611db2611bb6565b5092915050565b8082018281126000831280158216821582161715611dd957611dd9611bb6565b505092915050565b60208082526025908201527f4552433732313a207472616e736665722066726f6d20696e636f72726563742060408201526437bbb732b960d91b606082015260800190565b60208082526032908201527f4552433732313a207472616e7366657220746f206e6f6e20455243373231526560408201527131b2b4bb32b91034b6b83632b6b2b73a32b960711b606082015260800190565b634e487b7160e01b600052603160045260246000fd5b6000600160ff1b8201611ea357611ea3611bb6565b5060000390565b6001600160a01b0385811682528416602082015260408101839052608060608201819052600090611edd90830184611822565b9695505050505050565b600060208284031215611ef957600080fd5b8151610a21816117cb56fea26469706673582212206d2b78b7b2a79e4e9303f6f549bf0582160b7eaea2a7fbab75e125e2bcfceca464736f6c634300081100334552433732313a207472616e7366657220746f206e6f6e204552433732315265697066733a2f2f516d5573654266594b326f567333316d7865645162337632715835625a31436a574e6965454e354150525a4c42422f",
  "immutableReferences": {},
  "source": "// SPDX-License-Identifier: GPL-3.0-or-later\n// Author:                  Rhea Myers <rhea@myers.studio>\n// Copyright:               2023 Myers Studio, Ltd.\npragma solidity 0.8.17;\n\nimport \"@openzeppelin/contracts/token/ERC721/ERC721.sol\";\nimport \"@openzeppelin/contracts/token/ERC721/extensions/ERC721Enumerable.sol\";\nimport \"@openzeppelin/contracts/security/Pausable.sol\";\nimport \"@openzeppelin/contracts/access/Ownable.sol\";\n\n/// @custom:security-contact rhea@myers.studio\ncontract Facecoin is ERC721, ERC721Enumerable, Pausable, Ownable {\n    uint256 constant public NUM_TOKENS = 24;\n    int256 constant internal MIN_CONTRAST = 32;\n\n    // Initial metadata URI\n    string private baseUri = \"ipfs://QmUseBfYK2oVs31mxedQb3v2qX5bZ1CjWNieEN5APRZLBB/\";\n\n    constructor() ERC721(\"Facecoin\", \"FAC\") {\n        for (uint256 i = 1; i <= NUM_TOKENS; i++) {\n            _safeMint(msg.sender, i);\n        }\n    }\n\n    function pause() public onlyOwner {\n        _pause();\n    }\n\n    function unpause() public onlyOwner {\n        _unpause();\n    }\n\n    function _baseURI() internal view virtual override returns (string memory) {\n        return baseUri;\n    }\n\n    function setBaseUri(string calldata newUri) external onlyOwner {\n        baseUri = newUri;\n    }\n\n    function _beforeTokenTransfer(address from, address to, uint256 tokenId, uint256 batchSize)\n        internal\n        whenNotPaused\n        override(ERC721, ERC721Enumerable)\n    {\n        super._beforeTokenTransfer(from, to, tokenId, batchSize);\n    }\n\n    // The following functions are overrides required by Solidity.\n\n    function supportsInterface(bytes4 interfaceId)\n        public\n        view\n        override(ERC721, ERC721Enumerable)\n        returns (bool)\n    {\n        return super.supportsInterface(interfaceId);\n    }\n\n    /*\n      Extract 24-bit forground and background colours from the hash of\n      the owner's address and the token id.\n      This will usually be the first and second 3-byte runs of the hash\n      bytes32, but if they are not contrasty enough we try successive 3-byte\n      runs for the foreground colour until we give up and default it to\n      black.\n     */\n\n    function tokenPalette(uint256 tokenId)\n        public\n        view\n        returns (uint8[3][2] memory)\n    {\n        require(\n            tokenId > 0 && tokenId <= NUM_TOKENS,\n            \"tokenId out of range\"\n        );\n        bytes32 hash = sha256(abi.encodePacked(ownerOf(tokenId), tokenId));\n        uint8[3] memory background;\n        uint8[3] memory foreground;\n        extractRgb(hash, 0, background);\n        // Ethereum addresses are 20 bytes.\n        for (uint256 i = 15; i < 32; i += 3) {\n            extractRgb(hash, 1, foreground);\n            if (contrastRgbs(background, foreground) <= MIN_CONTRAST) {\n                break;\n            }\n        }\n        return [background, foreground];\n    }\n\n    /*\n      Extract 3 successive bytes from the hash and insert them into the bytes\n      of a uint24 in order.\n     */\n\n    function extractRgb(bytes32 hash, uint256 index, uint8[3] memory rgb)\n        internal\n        pure\n    {\n        rgb[0] = uint8(hash[index]);\n        rgb[1] = uint8(hash[index + 1]);\n        rgb[2] = uint8(hash[index + 2]);\n    }\n\n    /*\n      Get the difference (not distance) between two 24-bit rgb values\n      encoded as uint24s.\n    */\n\n    function contrastRgbs(uint8[3] memory ua, uint8[3] memory ub)\n        internal\n        pure\n        returns (int256)\n    {\n        return\n            abs((int256(uint256(ua[0]))) - (int256(uint256(ub[0]))))\n            +  abs((int256(uint256(ua[1]))) - (int256(uint256(ub[1]))))\n            +  abs((int256(uint256(ua[2]))) - (int256(uint256(ub[2]))));\n    }\n\n    /*\n      Solidity doesn't have this.\n    */\n\n    function abs(int256 x)\n        internal\n        pure\n        returns (int256)\n    {\n        return x >= 0 ? x : -x;\n    }\n}\n",
  "sourcePath": "/home/rhea/projects/facecoin-edition/contracts/Facecoin.sol",
  "compiler": {
    "name": "solc",
    "version": "0.8.17+commit.8df45f5f.Emscripten.clang"
  },
  "schemaVersion": "3.4.11",
  "updatedAt": "2023-01-20T01:28:51.572Z",
  "networkType": "ethereum",
  "devdoc": {
    "custom:security-contact": "rhea@myers.studio",
    "kind": "dev",
    "methods": {
      "approve(address,uint256)": {
        "details": "See {IERC721-approve}."
      },
      "balanceOf(address)": {
        "details": "See {IERC721-balanceOf}."
      },
      "getApproved(uint256)": {
        "details": "See {IERC721-getApproved}."
      },
      "isApprovedForAll(address,address)": {
        "details": "See {IERC721-isApprovedForAll}."
      },
      "name()": {
        "details": "See {IERC721Metadata-name}."
      },
      "owner()": {
        "details": "Returns the address of the current owner."
      },
      "ownerOf(uint256)": {
        "details": "See {IERC721-ownerOf}."
      },
      "paused()": {
        "details": "Returns true if the contract is paused, and false otherwise."
      },
      "renounceOwnership()": {
        "details": "Leaves the contract without owner. It will not be possible to call `onlyOwner` functions anymore. Can only be called by the current owner. NOTE: Renouncing ownership will leave the contract without an owner, thereby removing any functionality that is only available to the owner."
      },
      "safeTransferFrom(address,address,uint256)": {
        "details": "See {IERC721-safeTransferFrom}."
      },
      "safeTransferFrom(address,address,uint256,bytes)": {
        "details": "See {IERC721-safeTransferFrom}."
      },
      "setApprovalForAll(address,bool)": {
        "details": "See {IERC721-setApprovalForAll}."
      },
      "symbol()": {
        "details": "See {IERC721Metadata-symbol}."
      },
      "tokenByIndex(uint256)": {
        "details": "See {IERC721Enumerable-tokenByIndex}."
      },
      "tokenOfOwnerByIndex(address,uint256)": {
        "details": "See {IERC721Enumerable-tokenOfOwnerByIndex}."
      },
      "tokenURI(uint256)": {
        "details": "See {IERC721Metadata-tokenURI}."
      },
      "totalSupply()": {
        "details": "See {IERC721Enumerable-totalSupply}."
      },
      "transferFrom(address,address,uint256)": {
        "details": "See {IERC721-transferFrom}."
      },
      "transferOwnership(address)": {
        "details": "Transfers ownership of the contract to a new account (`newOwner`). Can only be called by the current owner."
      }
    },
    "version": 1
  },
  "userdoc": {
    "kind": "user",
    "methods": {},
    "version": 1
  }
}