{
  "contractName": "FaceCoin",
  "abi": [
    {
      "inputs": [],
      "stateMutability": "nonpayable",
      "type": "constructor"
    },
    {
      "anonymous": false,
      "inputs": [
        {
          "indexed": true,
          "internalType": "address",
          "name": "owner",
          "type": "address"
        },
        {
          "indexed": true,
          "internalType": "address",
          "name": "approved",
          "type": "address"
        },
        {
          "indexed": true,
          "internalType": "uint256",
          "name": "tokenId",
          "type": "uint256"
        }
      ],
      "name": "Approval",
      "type": "event"
    },
    {
      "anonymous": false,
      "inputs": [
        {
          "indexed": true,
          "internalType": "address",
          "name": "owner",
          "type": "address"
        },
        {
          "indexed": true,
          "internalType": "address",
          "name": "operator",
          "type": "address"
        },
        {
          "indexed": false,
          "internalType": "bool",
          "name": "approved",
          "type": "bool"
        }
      ],
      "name": "ApprovalForAll",
      "type": "event"
    },
    {
      "anonymous": false,
      "inputs": [
        {
          "indexed": true,
          "internalType": "address",
          "name": "previousOwner",
          "type": "address"
        },
        {
          "indexed": true,
          "internalType": "address",
          "name": "newOwner",
          "type": "address"
        }
      ],
      "name": "OwnershipTransferred",
      "type": "event"
    },
    {
      "anonymous": false,
      "inputs": [
        {
          "indexed": false,
          "internalType": "address",
          "name": "account",
          "type": "address"
        }
      ],
      "name": "Paused",
      "type": "event"
    },
    {
      "anonymous": false,
      "inputs": [
        {
          "indexed": true,
          "internalType": "address",
          "name": "from",
          "type": "address"
        },
        {
          "indexed": true,
          "internalType": "address",
          "name": "to",
          "type": "address"
        },
        {
          "indexed": true,
          "internalType": "uint256",
          "name": "tokenId",
          "type": "uint256"
        }
      ],
      "name": "Transfer",
      "type": "event"
    },
    {
      "anonymous": false,
      "inputs": [
        {
          "indexed": false,
          "internalType": "address",
          "name": "account",
          "type": "address"
        }
      ],
      "name": "Unpaused",
      "type": "event"
    },
    {
      "inputs": [],
      "name": "NUM_TOKENS",
      "outputs": [
        {
          "internalType": "uint256",
          "name": "",
          "type": "uint256"
        }
      ],
      "stateMutability": "view",
      "type": "function",
      "constant": true
    },
    {
      "inputs": [
        {
          "internalType": "address",
          "name": "to",
          "type": "address"
        },
        {
          "internalType": "uint256",
          "name": "tokenId",
          "type": "uint256"
        }
      ],
      "name": "approve",
      "outputs": [],
      "stateMutability": "nonpayable",
      "type": "function"
    },
    {
      "inputs": [
        {
          "internalType": "address",
          "name": "owner",
          "type": "address"
        }
      ],
      "name": "balanceOf",
      "outputs": [
        {
          "internalType": "uint256",
          "name": "",
          "type": "uint256"
        }
      ],
      "stateMutability": "view",
      "type": "function",
      "constant": true
    },
    {
      "inputs": [
        {
          "internalType": "uint256",
          "name": "tokenId",
          "type": "uint256"
        }
      ],
      "name": "getApproved",
      "outputs": [
        {
          "internalType": "address",
          "name": "",
          "type": "address"
        }
      ],
      "stateMutability": "view",
      "type": "function",
      "constant": true
    },
    {
      "inputs": [
        {
          "internalType": "address",
          "name": "owner",
          "type": "address"
        },
        {
          "internalType": "address",
          "name": "operator",
          "type": "address"
        }
      ],
      "name": "isApprovedForAll",
      "outputs": [
        {
          "internalType": "bool",
          "name": "",
          "type": "bool"
        }
      ],
      "stateMutability": "view",
      "type": "function",
      "constant": true
    },
    {
      "inputs": [],
      "name": "name",
      "outputs": [
        {
          "internalType": "string",
          "name": "",
          "type": "string"
        }
      ],
      "stateMutability": "view",
      "type": "function",
      "constant": true
    },
    {
      "inputs": [],
      "name": "owner",
      "outputs": [
        {
          "internalType": "address",
          "name": "",
          "type": "address"
        }
      ],
      "stateMutability": "view",
      "type": "function",
      "constant": true
    },
    {
      "inputs": [
        {
          "internalType": "uint256",
          "name": "tokenId",
          "type": "uint256"
        }
      ],
      "name": "ownerOf",
      "outputs": [
        {
          "internalType": "address",
          "name": "",
          "type": "address"
        }
      ],
      "stateMutability": "view",
      "type": "function",
      "constant": true
    },
    {
      "inputs": [],
      "name": "paused",
      "outputs": [
        {
          "internalType": "bool",
          "name": "",
          "type": "bool"
        }
      ],
      "stateMutability": "view",
      "type": "function",
      "constant": true
    },
    {
      "inputs": [],
      "name": "renounceOwnership",
      "outputs": [],
      "stateMutability": "nonpayable",
      "type": "function"
    },
    {
      "inputs": [
        {
          "internalType": "address",
          "name": "from",
          "type": "address"
        },
        {
          "internalType": "address",
          "name": "to",
          "type": "address"
        },
        {
          "internalType": "uint256",
          "name": "tokenId",
          "type": "uint256"
        }
      ],
      "name": "safeTransferFrom",
      "outputs": [],
      "stateMutability": "nonpayable",
      "type": "function"
    },
    {
      "inputs": [
        {
          "internalType": "address",
          "name": "from",
          "type": "address"
        },
        {
          "internalType": "address",
          "name": "to",
          "type": "address"
        },
        {
          "internalType": "uint256",
          "name": "tokenId",
          "type": "uint256"
        },
        {
          "internalType": "bytes",
          "name": "data",
          "type": "bytes"
        }
      ],
      "name": "safeTransferFrom",
      "outputs": [],
      "stateMutability": "nonpayable",
      "type": "function"
    },
    {
      "inputs": [
        {
          "internalType": "address",
          "name": "operator",
          "type": "address"
        },
        {
          "internalType": "bool",
          "name": "approved",
          "type": "bool"
        }
      ],
      "name": "setApprovalForAll",
      "outputs": [],
      "stateMutability": "nonpayable",
      "type": "function"
    },
    {
      "inputs": [],
      "name": "symbol",
      "outputs": [
        {
          "internalType": "string",
          "name": "",
          "type": "string"
        }
      ],
      "stateMutability": "view",
      "type": "function",
      "constant": true
    },
    {
      "inputs": [
        {
          "internalType": "uint256",
          "name": "index",
          "type": "uint256"
        }
      ],
      "name": "tokenByIndex",
      "outputs": [
        {
          "internalType": "uint256",
          "name": "",
          "type": "uint256"
        }
      ],
      "stateMutability": "view",
      "type": "function",
      "constant": true
    },
    {
      "inputs": [
        {
          "internalType": "address",
          "name": "owner",
          "type": "address"
        },
        {
          "internalType": "uint256",
          "name": "index",
          "type": "uint256"
        }
      ],
      "name": "tokenOfOwnerByIndex",
      "outputs": [
        {
          "internalType": "uint256",
          "name": "",
          "type": "uint256"
        }
      ],
      "stateMutability": "view",
      "type": "function",
      "constant": true
    },
    {
      "inputs": [
        {
          "internalType": "uint256",
          "name": "tokenId",
          "type": "uint256"
        }
      ],
      "name": "tokenURI",
      "outputs": [
        {
          "internalType": "string",
          "name": "",
          "type": "string"
        }
      ],
      "stateMutability": "view",
      "type": "function",
      "constant": true
    },
    {
      "inputs": [],
      "name": "totalSupply",
      "outputs": [
        {
          "internalType": "uint256",
          "name": "",
          "type": "uint256"
        }
      ],
      "stateMutability": "view",
      "type": "function",
      "constant": true
    },
    {
      "inputs": [
        {
          "internalType": "address",
          "name": "from",
          "type": "address"
        },
        {
          "internalType": "address",
          "name": "to",
          "type": "address"
        },
        {
          "internalType": "uint256",
          "name": "tokenId",
          "type": "uint256"
        }
      ],
      "name": "transferFrom",
      "outputs": [],
      "stateMutability": "nonpayable",
      "type": "function"
    },
    {
      "inputs": [
        {
          "internalType": "address",
          "name": "newOwner",
          "type": "address"
        }
      ],
      "name": "transferOwnership",
      "outputs": [],
      "stateMutability": "nonpayable",
      "type": "function"
    },
    {
      "inputs": [],
      "name": "pause",
      "outputs": [],
      "stateMutability": "nonpayable",
      "type": "function"
    },
    {
      "inputs": [],
      "name": "unpause",
      "outputs": [],
      "stateMutability": "nonpayable",
      "type": "function"
    },
    {
      "inputs": [
        {
          "internalType": "bytes4",
          "name": "interfaceId",
          "type": "bytes4"
        }
      ],
      "name": "supportsInterface",
      "outputs": [
        {
          "internalType": "bool",
          "name": "",
          "type": "bool"
        }
      ],
      "stateMutability": "view",
      "type": "function",
      "constant": true
    },
    {
      "inputs": [
        {
          "internalType": "uint256",
          "name": "tokenId",
          "type": "uint256"
        }
      ],
      "name": "tokenPalette",
      "outputs": [
        {
          "internalType": "uint8[3][2]",
          "name": "",
          "type": "uint8[3][2]"
        }
      ],
      "stateMutability": "view",
      "type": "function",
      "constant": true
    }
  ],
  "bytecode": "0x60806040523480156200001157600080fd5b50604051806040016040528060088152602001672330b1b2a1b7b4b760c11b8152506040518060400160405280600381526020016246414360e81b815250816000908162000060919062000a0d565b5060016200006f828262000a0d565b5050600a805460ff19169055506200008733620000bb565b60015b60188111620000b4576200009f338262000115565b80620000ab8162000aef565b9150506200008a565b5062000c0f565b600a80546001600160a01b03838116610100818102610100600160a81b031985161790945560405193909204169182907f8be0079c531659141344cd1fd0a4f28419497f9722a3daafe3b4186f6b6457e090600090a35050565b620001378282604051806020016040528060008152506200013b60201b60201c565b5050565b620001478383620001b7565b62000156600084848462000358565b620001b25760405162461bcd60e51b815260206004820152603260248201526000805160206200299483398151915260448201527131b2b4bb32b91034b6b83632b6b2b73a32b960711b60648201526084015b60405180910390fd5b505050565b6001600160a01b0382166200020f5760405162461bcd60e51b815260206004820181905260248201527f4552433732313a206d696e7420746f20746865207a65726f20616464726573736044820152606401620001a9565b6000818152600260205260409020546001600160a01b031615620002765760405162461bcd60e51b815260206004820152601c60248201527f4552433732313a20746f6b656e20616c7265616479206d696e746564000000006044820152606401620001a9565b62000286600083836001620004b4565b6000818152600260205260409020546001600160a01b031615620002ed5760405162461bcd60e51b815260206004820152601c60248201527f4552433732313a20746f6b656e20616c7265616479206d696e746564000000006044820152606401620001a9565b6001600160a01b038216600081815260036020908152604080832080546001019055848352600290915280822080546001600160a01b0319168417905551839291907fddf252ad1be2c89b69c2b068fc378daa952ba7f163c4a11628f55a4df523b3ef908290a45050565b600062000379846001600160a01b0316620004dd60201b62000a6b1760201c565b15620004a857604051630a85bd0160e11b81526001600160a01b0385169063150b7a0290620003b390339089908890889060040162000b0b565b6020604051808303816000875af1925050508015620003f1575060408051601f3d908101601f19168201909252620003ee9181019062000b7e565b60015b6200048d573d80801562000422576040519150601f19603f3d011682016040523d82523d6000602084013e62000427565b606091505b508051600003620004855760405162461bcd60e51b815260206004820152603260248201526000805160206200299483398151915260448201527131b2b4bb32b91034b6b83632b6b2b73a32b960711b6064820152608401620001a9565b805181602001fd5b6001600160e01b031916630a85bd0160e11b149050620004ac565b5060015b949350505050565b620004be620004ec565b620004d7848484846200053660201b62000a7a1760201c565b50505050565b6001600160a01b03163b151590565b600a5460ff1615620005345760405162461bcd60e51b815260206004820152601060248201526f14185d5cd8589b194e881c185d5cd95960821b6044820152606401620001a9565b565b6200054f848484846200069a60201b62000bba1760201c565b6001811115620005c85760405162461bcd60e51b815260206004820152603560248201527f455243373231456e756d657261626c653a20636f6e736563757469766520747260448201527f616e7366657273206e6f7420737570706f7274656400000000000000000000006064820152608401620001a9565b816001600160a01b03851662000627576200062181600880546000838152600960205260408120829055600182018355919091527ff3f7a9fe364faab93b216da50a3214154f22a0a2b415b23a84c8169e8b636ee30155565b6200064d565b836001600160a01b0316856001600160a01b0316146200064d576200064d858262000729565b6001600160a01b0384166200066d576200066781620007d6565b62000693565b846001600160a01b0316846001600160a01b031614620006935762000693848262000890565b5050505050565b6001811115620004d7576001600160a01b03841615620006e4576001600160a01b03841660009081526003602052604081208054839290620006de90849062000bb1565b90915550505b6001600160a01b03831615620004d7576001600160a01b038316600090815260036020526040812080548392906200071e90849062000bcd565b909155505050505050565b600060016200074384620008e160201b620008801760201c565b6200074f919062000bb1565b600083815260076020526040902054909150808214620007a3576001600160a01b03841660009081526006602090815260408083208584528252808320548484528184208190558352600790915290208190555b5060009182526007602090815260408084208490556001600160a01b039094168352600681528383209183525290812055565b600854600090620007ea9060019062000bb1565b6000838152600960205260408120546008805493945090928490811062000815576200081562000be3565b90600052602060002001549050806008838154811062000839576200083962000be3565b600091825260208083209091019290925582815260099091526040808220849055858252812055600880548062000874576200087462000bf9565b6001900381819060005260206000200160009055905550505050565b6000620008a883620008e160201b620008801760201c565b6001600160a01b039093166000908152600660209081526040808320868452825280832085905593825260079052919091209190915550565b60006001600160a01b0382166200094d5760405162461bcd60e51b815260206004820152602960248201527f4552433732313a2061646472657373207a65726f206973206e6f7420612076616044820152683634b21037bbb732b960b91b6064820152608401620001a9565b506001600160a01b031660009081526003602052604090205490565b634e487b7160e01b600052604160045260246000fd5b600181811c908216806200099457607f821691505b602082108103620009b557634e487b7160e01b600052602260045260246000fd5b50919050565b601f821115620001b257600081815260208120601f850160051c81016020861015620009e45750805b601f850160051c820191505b8181101562000a0557828155600101620009f0565b505050505050565b81516001600160401b0381111562000a295762000a2962000969565b62000a418162000a3a84546200097f565b84620009bb565b602080601f83116001811462000a79576000841562000a605750858301515b600019600386901b1c1916600185901b17855562000a05565b600085815260208120601f198616915b8281101562000aaa5788860151825594840194600190910190840162000a89565b508582101562000ac95787850151600019600388901b60f8161c191681555b5050505050600190811b01905550565b634e487b7160e01b600052601160045260246000fd5b60006001820162000b045762000b0462000ad9565b5060010190565b600060018060a01b038087168352602081871681850152856040850152608060608501528451915081608085015260005b8281101562000b5a5785810182015185820160a00152810162000b3c565b5050600060a0828501015260a0601f19601f83011684010191505095945050505050565b60006020828403121562000b9157600080fd5b81516001600160e01b03198116811462000baa57600080fd5b9392505050565b8181038181111562000bc75762000bc762000ad9565b92915050565b8082018082111562000bc75762000bc762000ad9565b634e487b7160e01b600052603260045260246000fd5b634e487b7160e01b600052603160045260246000fd5b611d758062000c1f6000396000f3fe608060405234801561001057600080fd5b50600436106101585760003560e01c80635c975abb116100c357806395d89b411161007c57806395d89b41146102bf578063a22cb465146102c7578063b88d4fde146102da578063c87b56dd146102ed578063e985e9c514610300578063f2fde38b1461033c57600080fd5b80635c975abb146102685780636352211e1461027357806370a0823114610286578063715018a6146102995780638456cb59146102a15780638da5cb5b146102a957600080fd5b806323b872dd1161011557806323b872dd1461020c5780632f745c591461021f5780633f4ba83a146102325780634149db481461023a57806342842e0e146102425780634f6ccce71461025557600080fd5b806301ffc9a71461015d57806306fdde0314610185578063081812fc1461019a578063095ea7b3146101c557806312a1d374146101da57806318160ddd146101fa575b600080fd5b61017061016b36600461179c565b61034f565b60405190151581526020015b60405180910390f35b61018d610360565b60405161017c9190611809565b6101ad6101a836600461181c565b6103f2565b6040516001600160a01b03909116815260200161017c565b6101d86101d3366004611851565b610419565b005b6101ed6101e836600461181c565b610533565b60405161017c919061187b565b6008545b60405190815260200161017c565b6101d861021a3660046118d8565b610699565b6101fe61022d366004611851565b6106ca565b6101d8610760565b6101fe601881565b6101d86102503660046118d8565b610772565b6101fe61026336600461181c565b61078d565b600a5460ff16610170565b6101ad61028136600461181c565b610820565b6101fe610294366004611914565b610880565b6101d8610906565b6101d8610918565b600a5461010090046001600160a01b03166101ad565b61018d610928565b6101d86102d536600461192f565b610937565b6101d86102e8366004611981565b610946565b61018d6102fb36600461181c565b61097e565b61017061030e366004611a5d565b6001600160a01b03918216600090815260056020908152604080832093909416825291909152205460ff1690565b6101d861034a366004611914565b6109f2565b600061035a82610c42565b92915050565b60606000805461036f90611a90565b80601f016020809104026020016040519081016040528092919081815260200182805461039b90611a90565b80156103e85780601f106103bd576101008083540402835291602001916103e8565b820191906000526020600020905b8154815290600101906020018083116103cb57829003601f168201915b5050505050905090565b60006103fd82610c67565b506000908152600460205260409020546001600160a01b031690565b600061042482610820565b9050806001600160a01b0316836001600160a01b0316036104965760405162461bcd60e51b815260206004820152602160248201527f4552433732313a20617070726f76616c20746f2063757272656e74206f776e656044820152603960f91b60648201526084015b60405180910390fd5b336001600160a01b03821614806104b257506104b2813361030e565b6105245760405162461bcd60e51b815260206004820152603d60248201527f4552433732313a20617070726f76652063616c6c6572206973206e6f7420746f60448201527f6b656e206f776e6572206f7220617070726f76656420666f7220616c6c000000606482015260840161048d565b61052e8383610cc6565b505050565b61053b61173b565b60008211801561054c575060188211155b61058f5760405162461bcd60e51b8152602060048201526014602482015273746f6b656e4964206f7574206f662072616e676560601b604482015260640161048d565b6000600261059c84610820565b846040516020016105cb92919060609290921b6bffffffffffffffffffffffff19168252601482015260340190565b60408051601f19818403018152908290526105e591611aca565b602060405180830381855afa158015610602573d6000803e3d6000fd5b5050506040513d601f19601f820116820180604052508101906106259190611ae6565b905061062f611768565b610637611768565b61064383600084610d34565b600f5b602081101561067f5761065b84600184610d34565b60206106678484610d92565b131561067f57610678600382611b15565b9050610646565b506040805180820190915291825260208201529392505050565b6106a33382610df6565b6106bf5760405162461bcd60e51b815260040161048d90611b28565b61052e838383610e75565b60006106d583610880565b82106107375760405162461bcd60e51b815260206004820152602b60248201527f455243373231456e756d657261626c653a206f776e657220696e646578206f7560448201526a74206f6620626f756e647360a81b606482015260840161048d565b506001600160a01b03919091166000908152600660209081526040808320938352929052205490565b610768610fe6565b610770611046565b565b61052e83838360405180602001604052806000815250610946565b600061079860085490565b82106107fb5760405162461bcd60e51b815260206004820152602c60248201527f455243373231456e756d657261626c653a20676c6f62616c20696e646578206f60448201526b7574206f6620626f756e647360a01b606482015260840161048d565b6008828154811061080e5761080e611b75565b90600052602060002001549050919050565b6000818152600260205260408120546001600160a01b03168061035a5760405162461bcd60e51b8152602060048201526018602482015277115490cdcc8c4e881a5b9d985b1a59081d1bdad95b88125160421b604482015260640161048d565b60006001600160a01b0382166108ea5760405162461bcd60e51b815260206004820152602960248201527f4552433732313a2061646472657373207a65726f206973206e6f7420612076616044820152683634b21037bbb732b960b91b606482015260840161048d565b506001600160a01b031660009081526003602052604090205490565b61090e610fe6565b6107706000611098565b610920610fe6565b6107706110f2565b60606001805461036f90611a90565b61094233838361112f565b5050565b6109503383610df6565b61096c5760405162461bcd60e51b815260040161048d90611b28565b610978848484846111fd565b50505050565b606061098982610c67565b60006109a060408051602081019091526000815290565b905060008151116109c057604051806020016040528060008152506109eb565b806109ca84611230565b6040516020016109db929190611b8b565b6040516020818303038152906040525b9392505050565b6109fa610fe6565b6001600160a01b038116610a5f5760405162461bcd60e51b815260206004820152602660248201527f4f776e61626c653a206e6577206f776e657220697320746865207a65726f206160448201526564647265737360d01b606482015260840161048d565b610a6881611098565b50565b6001600160a01b03163b151590565b610a8684848484610bba565b6001811115610af55760405162461bcd60e51b815260206004820152603560248201527f455243373231456e756d657261626c653a20636f6e7365637574697665207472604482015274185b9cd9995c9cc81b9bdd081cdd5c1c1bdc9d1959605a1b606482015260840161048d565b816001600160a01b038516610b5157610b4c81600880546000838152600960205260408120829055600182018355919091527ff3f7a9fe364faab93b216da50a3214154f22a0a2b415b23a84c8169e8b636ee30155565b610b74565b836001600160a01b0316856001600160a01b031614610b7457610b7485826112c3565b6001600160a01b038416610b9057610b8b81611360565b610bb3565b846001600160a01b0316846001600160a01b031614610bb357610bb3848261140f565b5050505050565b6001811115610978576001600160a01b03841615610c00576001600160a01b03841660009081526003602052604081208054839290610bfa908490611bba565b90915550505b6001600160a01b03831615610978576001600160a01b03831660009081526003602052604081208054839290610c37908490611b15565b909155505050505050565b60006001600160e01b0319821663780e9d6360e01b148061035a575061035a82611453565b6000818152600260205260409020546001600160a01b0316610a685760405162461bcd60e51b8152602060048201526018602482015277115490cdcc8c4e881a5b9d985b1a59081d1bdad95b88125160421b604482015260640161048d565b600081815260046020526040902080546001600160a01b0319166001600160a01b0384169081179091558190610cfb82610820565b6001600160a01b03167f8c5be1e5ebec7d5bd14f71427d1e84f3dd0314c0f7b2291e5b200ac8c7c3b92560405160405180910390a45050565b828260208110610d4657610d46611b75565b1a815282610d55836001611b15565b60208110610d6557610d65611b75565b1a602082015282610d77836002611b15565b60208110610d8757610d87611b75565b1a6040909101525050565b6000610dbd826002602002015160ff168460025b602002015160ff16610db89190611bcd565b6114a3565b6020830151610dd19060ff16856001610da6565b8351610de29060ff16866000610da6565b610dec9190611bf4565b6109eb9190611bf4565b600080610e0283610820565b9050806001600160a01b0316846001600160a01b03161480610e4957506001600160a01b0380821660009081526005602090815260408083209388168352929052205460ff165b80610e6d5750836001600160a01b0316610e62846103f2565b6001600160a01b0316145b949350505050565b826001600160a01b0316610e8882610820565b6001600160a01b031614610eae5760405162461bcd60e51b815260040161048d90611c1c565b6001600160a01b038216610f105760405162461bcd60e51b8152602060048201526024808201527f4552433732313a207472616e7366657220746f20746865207a65726f206164646044820152637265737360e01b606482015260840161048d565b610f1d83838360016114bf565b826001600160a01b0316610f3082610820565b6001600160a01b031614610f565760405162461bcd60e51b815260040161048d90611c1c565b600081815260046020908152604080832080546001600160a01b03199081169091556001600160a01b0387811680865260038552838620805460001901905590871680865283862080546001019055868652600290945282852080549092168417909155905184937fddf252ad1be2c89b69c2b068fc378daa952ba7f163c4a11628f55a4df523b3ef91a4505050565b600a546001600160a01b036101009091041633146107705760405162461bcd60e51b815260206004820181905260248201527f4f776e61626c653a2063616c6c6572206973206e6f7420746865206f776e6572604482015260640161048d565b61104e6114d3565b600a805460ff191690557f5db9ee0a495bf2e6ff9c91a7834c1ba4fdd244a5e8aa4e537bd38aeae4b073aa335b6040516001600160a01b03909116815260200160405180910390a1565b600a80546001600160a01b03838116610100818102610100600160a81b031985161790945560405193909204169182907f8be0079c531659141344cd1fd0a4f28419497f9722a3daafe3b4186f6b6457e090600090a35050565b6110fa61151c565b600a805460ff191660011790557f62e78cea01bee320cd4e420270b5ea74000d11b0c9f74754ebdbfc544b05a25861107b3390565b816001600160a01b0316836001600160a01b0316036111905760405162461bcd60e51b815260206004820152601960248201527f4552433732313a20617070726f766520746f2063616c6c657200000000000000604482015260640161048d565b6001600160a01b03838116600081815260056020908152604080832094871680845294825291829020805460ff191686151590811790915591519182527f17307eab39ab6107e8899845ad3d59bd9653f200f220920489ca2b5937696c31910160405180910390a3505050565b611208848484610e75565b61121484848484611562565b6109785760405162461bcd60e51b815260040161048d90611c61565b6060600061123d83611663565b600101905060008167ffffffffffffffff81111561125d5761125d61196b565b6040519080825280601f01601f191660200182016040528015611287576020820181803683370190505b5090508181016020015b600019016f181899199a1a9b1b9c1cb0b131b232b360811b600a86061a8153600a850494508461129157509392505050565b600060016112d084610880565b6112da9190611bba565b60008381526007602052604090205490915080821461132d576001600160a01b03841660009081526006602090815260408083208584528252808320548484528184208190558352600790915290208190555b5060009182526007602090815260408084208490556001600160a01b039094168352600681528383209183525290812055565b60085460009061137290600190611bba565b6000838152600960205260408120546008805493945090928490811061139a5761139a611b75565b9060005260206000200154905080600883815481106113bb576113bb611b75565b60009182526020808320909101929092558281526009909152604080822084905585825281205560088054806113f3576113f3611cb3565b6001900381819060005260206000200160009055905550505050565b600061141a83610880565b6001600160a01b039093166000908152600660209081526040808320868452825280832085905593825260079052919091209190915550565b60006001600160e01b031982166380ac58cd60e01b148061148457506001600160e01b03198216635b5e139f60e01b145b8061035a57506301ffc9a760e01b6001600160e01b031983161461035a565b6000808212156114bb576114b682611cc9565b61035a565b5090565b6114c761151c565b61097884848484610a7a565b600a5460ff166107705760405162461bcd60e51b815260206004820152601460248201527314185d5cd8589b194e881b9bdd081c185d5cd95960621b604482015260640161048d565b600a5460ff16156107705760405162461bcd60e51b815260206004820152601060248201526f14185d5cd8589b194e881c185d5cd95960821b604482015260640161048d565b60006001600160a01b0384163b1561165857604051630a85bd0160e11b81526001600160a01b0385169063150b7a02906115a6903390899088908890600401611ce5565b6020604051808303816000875af19250505080156115e1575060408051601f3d908101601f191682019092526115de91810190611d22565b60015b61163e573d80801561160f576040519150601f19603f3d011682016040523d82523d6000602084013e611614565b606091505b5080516000036116365760405162461bcd60e51b815260040161048d90611c61565b805181602001fd5b6001600160e01b031916630a85bd0160e11b149050610e6d565b506001949350505050565b60008072184f03e93ff9f4daa797ed6e38ed64bf6a1f0160401b83106116a25772184f03e93ff9f4daa797ed6e38ed64bf6a1f0160401b830492506040015b6d04ee2d6d415b85acef810000000083106116ce576d04ee2d6d415b85acef8100000000830492506020015b662386f26fc1000083106116ec57662386f26fc10000830492506010015b6305f5e1008310611704576305f5e100830492506008015b612710831061171857612710830492506004015b6064831061172a576064830492506002015b600a831061035a5760010192915050565b60405180604001604052806002905b611752611768565b81526020019060019003908161174a5790505090565b60405180606001604052806003906020820280368337509192915050565b6001600160e01b031981168114610a6857600080fd5b6000602082840312156117ae57600080fd5b81356109eb81611786565b60005b838110156117d45781810151838201526020016117bc565b50506000910152565b600081518084526117f58160208601602086016117b9565b601f01601f19169290920160200192915050565b6020815260006109eb60208301846117dd565b60006020828403121561182e57600080fd5b5035919050565b80356001600160a01b038116811461184c57600080fd5b919050565b6000806040838503121561186457600080fd5b61186d83611835565b946020939093013593505050565b60c0810181836000805b60028110156118ce57825184835b60038110156118b557825160ff16825260209283019290910190600101611893565b5050506060939093019260209290920191600101611885565b5050505092915050565b6000806000606084860312156118ed57600080fd5b6118f684611835565b925061190460208501611835565b9150604084013590509250925092565b60006020828403121561192657600080fd5b6109eb82611835565b6000806040838503121561194257600080fd5b61194b83611835565b91506020830135801515811461196057600080fd5b809150509250929050565b634e487b7160e01b600052604160045260246000fd5b6000806000806080858703121561199757600080fd5b6119a085611835565b93506119ae60208601611835565b925060408501359150606085013567ffffffffffffffff808211156119d257600080fd5b818701915087601f8301126119e657600080fd5b8135818111156119f8576119f861196b565b604051601f8201601f19908116603f01168101908382118183101715611a2057611a2061196b565b816040528281528a6020848701011115611a3957600080fd5b82602086016020830137600060208483010152809550505050505092959194509250565b60008060408385031215611a7057600080fd5b611a7983611835565b9150611a8760208401611835565b90509250929050565b600181811c90821680611aa457607f821691505b602082108103611ac457634e487b7160e01b600052602260045260246000fd5b50919050565b60008251611adc8184602087016117b9565b9190910192915050565b600060208284031215611af857600080fd5b5051919050565b634e487b7160e01b600052601160045260246000fd5b8082018082111561035a5761035a611aff565b6020808252602d908201527f4552433732313a2063616c6c6572206973206e6f7420746f6b656e206f776e6560408201526c1c881bdc88185c1c1c9bdd9959609a1b606082015260800190565b634e487b7160e01b600052603260045260246000fd5b60008351611b9d8184602088016117b9565b835190830190611bb18183602088016117b9565b01949350505050565b8181038181111561035a5761035a611aff565b8181036000831280158383131683831282161715611bed57611bed611aff565b5092915050565b8082018281126000831280158216821582161715611c1457611c14611aff565b505092915050565b60208082526025908201527f4552433732313a207472616e736665722066726f6d20696e636f72726563742060408201526437bbb732b960d91b606082015260800190565b60208082526032908201527f4552433732313a207472616e7366657220746f206e6f6e20455243373231526560408201527131b2b4bb32b91034b6b83632b6b2b73a32b960711b606082015260800190565b634e487b7160e01b600052603160045260246000fd5b6000600160ff1b8201611cde57611cde611aff565b5060000390565b6001600160a01b0385811682528416602082015260408101839052608060608201819052600090611d18908301846117dd565b9695505050505050565b600060208284031215611d3457600080fd5b81516109eb8161178656fea264697066735822122084224b8ed99bdabcf231560cb0d5cb345bef2043bf41150ea84daf8ceddfee0564736f6c634300081100334552433732313a207472616e7366657220746f206e6f6e204552433732315265",
  "immutableReferences": {},
  "source": "// SPDX-License-Identifier: GPL-3.0-or-later\n// Author:                  Rhea Myers <rhea@myers.studio>\n// Copyright:               2023 Myers Studio, Ltd.\npragma solidity 0.8.17;\n\nimport \"@openzeppelin/contracts/token/ERC721/ERC721.sol\";\nimport \"@openzeppelin/contracts/token/ERC721/extensions/ERC721Enumerable.sol\";\nimport \"@openzeppelin/contracts/security/Pausable.sol\";\nimport \"@openzeppelin/contracts/access/Ownable.sol\";\n\n/// @custom:security-contact rhea@myers.studio\ncontract FaceCoin is ERC721, ERC721Enumerable, Pausable, Ownable {\n    uint256 constant public NUM_TOKENS = 24;\n    int256 constant internal MIN_CONTRAST = 32;\n\n    constructor() ERC721(\"FaceCoin\", \"FAC\") {\n        for (uint256 i = 1; i <= NUM_TOKENS; i++) {\n            _safeMint(msg.sender, i);\n        }\n    }\n\n    function pause() public onlyOwner {\n        _pause();\n    }\n\n    function unpause() public onlyOwner {\n        _unpause();\n    }\n\n    function _beforeTokenTransfer(address from, address to, uint256 tokenId, uint256 batchSize)\n        internal\n        whenNotPaused\n        override(ERC721, ERC721Enumerable)\n    {\n        super._beforeTokenTransfer(from, to, tokenId, batchSize);\n    }\n\n    // The following functions are overrides required by Solidity.\n\n    function supportsInterface(bytes4 interfaceId)\n        public\n        view\n        override(ERC721, ERC721Enumerable)\n        returns (bool)\n    {\n        return super.supportsInterface(interfaceId);\n    }\n\n    /*\n      Extract 24-bit forground and background colours from the hash of\n      the owner's address and the token id.\n      This will usually be the first and second 3-byte runs of the hash\n      bytes32, but if they are not contrasty enough we try successive 3-byte\n      runs for the foreground colour until we give up and default it to\n      black.\n     */\n\n    function tokenPalette(uint256 tokenId)\n        public\n        view\n        returns (uint8[3][2] memory)\n    {\n        require(\n            tokenId > 0 && tokenId <= NUM_TOKENS,\n            \"tokenId out of range\"\n        );\n        bytes32 hash = sha256(abi.encodePacked(ownerOf(tokenId), tokenId));\n        uint8[3] memory background;\n        uint8[3] memory foreground;\n        extractRgb(hash, 0, background);\n        // Ethereum addresses are 20 bytes.\n        for (uint256 i = 15; i < 32; i += 3) {\n            extractRgb(hash, 1, foreground);\n            if (contrastRgbs(background, foreground) <= MIN_CONTRAST) {\n                break;\n            }\n        }\n        return [background, foreground];\n    }\n\n    /*\n      Extract 3 successive bytes from the hash and insert them into the bytes\n      of a uint24 in order.\n     */\n\n    function extractRgb(bytes32 hash, uint256 index, uint8[3] memory rgb)\n        internal\n        pure\n    {\n        rgb[0] = uint8(hash[index]);\n        rgb[1] = uint8(hash[index + 1]);\n        rgb[2] = uint8(hash[index + 2]);\n    }\n\n    /*\n      Get the difference (not distance) between two 24-bit rgb values\n      encoded as uint24s.\n    */\n\n    function contrastRgbs(uint8[3] memory ua, uint8[3] memory ub)\n        internal\n        pure\n        returns (int256)\n    {\n        return\n            abs((int256(uint256(ua[0]))) - (int256(uint256(ub[0]))))\n            +  abs((int256(uint256(ua[1]))) - (int256(uint256(ub[1]))))\n            +  abs((int256(uint256(ua[2]))) - (int256(uint256(ub[2]))));\n    }\n\n    /*\n      Solidity doesn't have this.\n    */\n\n    function abs(int256 x)\n        internal\n        pure\n        returns (int256)\n    {\n        return x >= 0 ? x : -x;\n    }\n}\n",
  "sourcePath": "/home/rhea/projects/facecoin-edition/contracts/Facecoin.sol",
  "compiler": {
    "name": "solc",
    "version": "0.8.17+commit.8df45f5f.Emscripten.clang"
  },
  "schemaVersion": "3.4.11",
  "updatedAt": "2023-01-18T02:01:16.755Z",
  "networkType": "ethereum",
  "devdoc": {
    "custom:security-contact": "rhea@myers.studio",
    "kind": "dev",
    "methods": {
      "approve(address,uint256)": {
        "details": "See {IERC721-approve}."
      },
      "balanceOf(address)": {
        "details": "See {IERC721-balanceOf}."
      },
      "getApproved(uint256)": {
        "details": "See {IERC721-getApproved}."
      },
      "isApprovedForAll(address,address)": {
        "details": "See {IERC721-isApprovedForAll}."
      },
      "name()": {
        "details": "See {IERC721Metadata-name}."
      },
      "owner()": {
        "details": "Returns the address of the current owner."
      },
      "ownerOf(uint256)": {
        "details": "See {IERC721-ownerOf}."
      },
      "paused()": {
        "details": "Returns true if the contract is paused, and false otherwise."
      },
      "renounceOwnership()": {
        "details": "Leaves the contract without owner. It will not be possible to call `onlyOwner` functions anymore. Can only be called by the current owner. NOTE: Renouncing ownership will leave the contract without an owner, thereby removing any functionality that is only available to the owner."
      },
      "safeTransferFrom(address,address,uint256)": {
        "details": "See {IERC721-safeTransferFrom}."
      },
      "safeTransferFrom(address,address,uint256,bytes)": {
        "details": "See {IERC721-safeTransferFrom}."
      },
      "setApprovalForAll(address,bool)": {
        "details": "See {IERC721-setApprovalForAll}."
      },
      "symbol()": {
        "details": "See {IERC721Metadata-symbol}."
      },
      "tokenByIndex(uint256)": {
        "details": "See {IERC721Enumerable-tokenByIndex}."
      },
      "tokenOfOwnerByIndex(address,uint256)": {
        "details": "See {IERC721Enumerable-tokenOfOwnerByIndex}."
      },
      "tokenURI(uint256)": {
        "details": "See {IERC721Metadata-tokenURI}."
      },
      "totalSupply()": {
        "details": "See {IERC721Enumerable-totalSupply}."
      },
      "transferFrom(address,address,uint256)": {
        "details": "See {IERC721-transferFrom}."
      },
      "transferOwnership(address)": {
        "details": "Transfers ownership of the contract to a new account (`newOwner`). Can only be called by the current owner."
      }
    },
    "version": 1
  },
  "userdoc": {
    "kind": "user",
    "methods": {},
    "version": 1
  }
}